{
  "contractName": "Hello",
  "abi": [
    {
      "constant": true,
      "inputs": [
        {
          "name": "",
          "type": "uint256"
        }
      ],
      "name": "charityProjects",
      "outputs": [
        {
          "name": "projectName",
          "type": "string"
        },
        {
          "name": "createrAddress",
          "type": "address"
        },
        {
          "name": "projectDescription",
          "type": "string"
        },
        {
          "name": "amountRequire",
          "type": "uint256"
        },
        {
          "name": "isCompleted",
          "type": "bool"
        },
        {
          "name": "amountGot",
          "type": "uint256"
        },
        {
          "name": "isApproved",
          "type": "bool"
        }
      ],
      "payable": false,
      "stateMutability": "view",
      "type": "function"
    },
    {
      "constant": true,
      "inputs": [],
      "name": "totalProjects",
      "outputs": [
        {
          "name": "",
          "type": "uint256"
        }
      ],
      "payable": false,
      "stateMutability": "view",
      "type": "function"
    },
    {
      "constant": true,
      "inputs": [
        {
          "name": "",
          "type": "address"
        }
      ],
      "name": "donors",
      "outputs": [
        {
          "name": "donorName",
          "type": "string"
        },
        {
          "name": "donorAddress",
          "type": "address"
        },
        {
          "name": "donorEmail",
          "type": "string"
        },
        {
          "name": "participatedCount",
          "type": "uint256"
        }
      ],
      "payable": false,
      "stateMutability": "view",
      "type": "function"
    },
    {
      "constant": true,
      "inputs": [
        {
          "name": "",
          "type": "address"
        }
      ],
      "name": "benifactors",
      "outputs": [
        {
          "name": "benifactorName",
          "type": "string"
        },
        {
          "name": "benifactorAddress",
          "type": "address"
        },
        {
          "name": "benifactorEmail",
          "type": "string"
        }
      ],
      "payable": false,
      "stateMutability": "view",
      "type": "function"
    },
    {
      "inputs": [],
      "payable": false,
      "stateMutability": "nonpayable",
      "type": "constructor"
    },
    {
      "anonymous": false,
      "inputs": [
        {
          "indexed": false,
          "name": "benifactorName",
          "type": "string"
        },
        {
          "indexed": false,
          "name": "benifactorAddress",
          "type": "address"
        },
        {
          "indexed": false,
          "name": "benifactorEmail",
          "type": "string"
        }
      ],
      "name": "newBenifactorAdded",
      "type": "event"
    },
    {
      "anonymous": false,
      "inputs": [
        {
          "indexed": false,
          "name": "donorName",
          "type": "string"
        },
        {
          "indexed": false,
          "name": "donorAddress",
          "type": "address"
        },
        {
          "indexed": false,
          "name": "donorEmail",
          "type": "string"
        }
      ],
      "name": "newDonorAdded",
      "type": "event"
    },
    {
      "anonymous": false,
      "inputs": [
        {
          "indexed": false,
          "name": "projectName",
          "type": "string"
        },
        {
          "indexed": false,
          "name": "createrAddress",
          "type": "address"
        },
        {
          "indexed": false,
          "name": "projectDescription",
          "type": "string"
        },
        {
          "indexed": false,
          "name": "amountRequire",
          "type": "uint256"
        },
        {
          "indexed": false,
          "name": "isCompleted",
          "type": "bool"
        },
        {
          "indexed": false,
          "name": "amountGot",
          "type": "uint256"
        },
        {
          "indexed": false,
          "name": "isApproved",
          "type": "bool"
        }
      ],
      "name": "newProjectAdded",
      "type": "event"
    },
    {
      "constant": false,
      "inputs": [
        {
          "name": "name",
          "type": "string"
        },
        {
          "name": "email",
          "type": "string"
        }
      ],
      "name": "addNewBenifactor",
      "outputs": [],
      "payable": false,
      "stateMutability": "nonpayable",
      "type": "function"
    },
    {
      "constant": false,
      "inputs": [
        {
          "name": "name",
          "type": "string"
        },
        {
          "name": "email",
          "type": "string"
        }
      ],
      "name": "addNewDonor",
      "outputs": [],
      "payable": false,
      "stateMutability": "nonpayable",
      "type": "function"
    },
    {
      "constant": false,
      "inputs": [
        {
          "name": "name",
          "type": "string"
        },
        {
          "name": "desc",
          "type": "string"
        },
        {
          "name": "amtReq",
          "type": "uint256"
        }
      ],
      "name": "addNewProject",
      "outputs": [],
      "payable": false,
      "stateMutability": "nonpayable",
      "type": "function"
    },
    {
      "constant": false,
      "inputs": [
        {
          "name": "ind",
          "type": "uint256"
        }
      ],
      "name": "getProject",
      "outputs": [
        {
          "name": "projectName",
          "type": "string"
        },
        {
          "name": "createrAddress",
          "type": "address"
        },
        {
          "name": "projectDescription",
          "type": "string"
        },
        {
          "name": "amountRequire",
          "type": "uint256"
        },
        {
          "name": "isCompleted",
          "type": "bool"
        },
        {
          "name": "amountGot",
          "type": "uint256"
        },
        {
          "name": "isApproved",
          "type": "bool"
        }
      ],
      "payable": false,
      "stateMutability": "nonpayable",
      "type": "function"
    },
    {
      "constant": true,
      "inputs": [
        {
          "name": "ind",
          "type": "uint256"
        }
      ],
      "name": "getDonorProjects",
      "outputs": [
        {
          "name": "",
          "type": "address"
        }
      ],
      "payable": false,
      "stateMutability": "view",
      "type": "function"
    },
    {
      "constant": true,
      "inputs": [],
      "name": "length",
      "outputs": [
        {
          "name": "",
          "type": "uint256"
        }
      ],
      "payable": false,
      "stateMutability": "view",
      "type": "function"
    }
  ],
  "bytecode": "0x60806040523480156200001157600080fd5b506060604051908101604052806040805190810160405280600481526020017f726f6f740000000000000000000000000000000000000000000000000000000081525081526020016040805190810160405280601481526020017f726f6f742e63686172697479636861696e2e696e00000000000000000000000081525081526020013373ffffffffffffffffffffffffffffffffffffffff16815250600080820151816000019080519060200190620000cd92919062000145565b506020820151816001019080519060200190620000ec92919062000145565b5060408201518160020160006101000a81548173ffffffffffffffffffffffffffffffffffffffff021916908373ffffffffffffffffffffffffffffffffffffffff1602179055509050506000600681905550620001f4565b828054600181600116156101000203166002900490600052602060002090601f016020900481019282601f106200018857805160ff1916838001178555620001b9565b82800160010185558215620001b9579182015b82811115620001b85782518255916020019190600101906200019b565b5b509050620001c89190620001cc565b5090565b620001f191905b80821115620001ed576000816000905550600101620001d3565b5090565b90565b611d2080620002046000396000f3fe6080604052600436106100a4576000357c0100000000000000000000000000000000000000000000000000000000900463ffffffff1680631bf71d4b146100a95780631f7b6d32146102125780631fd421f41461023d57806387ff2159146103b4578063992f317e1461042f5780639c361e4e1461058e578063c9b64ced146105b9578063ca0cdea814610718578063f0f3f2c814610888578063fba6f21d146109ff575b600080fd5b3480156100b557600080fd5b50610210600480360360608110156100cc57600080fd5b81019080803590602001906401000000008111156100e957600080fd5b8201836020820111156100fb57600080fd5b8035906020019184600183028401116401000000008311171561011d57600080fd5b91908080601f016020809104026020016040519081016040528093929190818152602001838380828437600081840152601f19601f8201169050808301925050505050505091929192908035906020019064010000000081111561018057600080fd5b82018360208201111561019257600080fd5b803590602001918460018302840111640100000000831117156101b457600080fd5b91908080601f016020809104026020016040519081016040528093929190818152602001838380828437600081840152601f19601f82011690508083019250505050505050919291929080359060200190929190505050610b68565b005b34801561021e57600080fd5b50610227610e2f565b6040518082815260200191505060405180910390f35b34801561024957600080fd5b506102766004803603602081101561026057600080fd5b8101908080359060200190929190505050610e39565b60405180806020018873ffffffffffffffffffffffffffffffffffffffff1673ffffffffffffffffffffffffffffffffffffffff16815260200180602001878152602001861515151581526020018581526020018415151515815260200183810383528a818151815260200191508051906020019080838360005b8381101561030c5780820151818401526020810190506102f1565b50505050905090810190601f1680156103395780820380516001836020036101000a031916815260200191505b50838103825288818151815260200191508051906020019080838360005b83811015610372578082015181840152602081019050610357565b50505050905090810190601f16801561039f5780820380516001836020036101000a031916815260200191505b50995050505050505050505060405180910390f35b3480156103c057600080fd5b506103ed600480360360208110156103d757600080fd5b8101908080359060200190929190505050610fe5565b604051808273ffffffffffffffffffffffffffffffffffffffff1673ffffffffffffffffffffffffffffffffffffffff16815260200191505060405180910390f35b34801561043b57600080fd5b5061058c6004803603604081101561045257600080fd5b810190808035906020019064010000000081111561046f57600080fd5b82018360208201111561048157600080fd5b803590602001918460018302840111640100000000831117156104a357600080fd5b91908080601f016020809104026020016040519081016040528093929190818152602001838380828437600081840152601f19601f8201169050808301925050505050505091929192908035906020019064010000000081111561050657600080fd5b82018360208201111561051857600080fd5b8035906020019184600183028401116401000000008311171561053a57600080fd5b91908080601f016020809104026020016040519081016040528093929190818152602001838380828437600081840152601f19601f820116905080830192505050505050509192919290505050611068565b005b34801561059a57600080fd5b506105a36112aa565b6040518082815260200191505060405180910390f35b3480156105c557600080fd5b50610716600480360360408110156105dc57600080fd5b81019080803590602001906401000000008111156105f957600080fd5b82018360208201111561060b57600080fd5b8035906020019184600183028401116401000000008311171561062d57600080fd5b91908080601f016020809104026020016040519081016040528093929190818152602001838380828437600081840152601f19601f8201169050808301925050505050505091929192908035906020019064010000000081111561069057600080fd5b8201836020820111156106a257600080fd5b803590602001918460018302840111640100000000831117156106c457600080fd5b91908080601f016020809104026020016040519081016040528093929190818152602001838380828437600081840152601f19601f8201169050808301925050505050505091929192905050506112b0565b005b34801561072457600080fd5b506107676004803603602081101561073b57600080fd5b81019080803573ffffffffffffffffffffffffffffffffffffffff169060200190929190505050611556565b60405180806020018573ffffffffffffffffffffffffffffffffffffffff1673ffffffffffffffffffffffffffffffffffffffff16815260200180602001848152602001838103835287818151815260200191508051906020019080838360005b838110156107e35780820151818401526020810190506107c8565b50505050905090810190601f1680156108105780820380516001836020036101000a031916815260200191505b50838103825285818151815260200191508051906020019080838360005b8381101561084957808201518184015260208101905061082e565b50505050905090810190601f1680156108765780820380516001836020036101000a031916815260200191505b50965050505050505060405180910390f35b34801561089457600080fd5b506108c1600480360360208110156108ab57600080fd5b81019080803590602001909291905050506116d6565b60405180806020018873ffffffffffffffffffffffffffffffffffffffff1673ffffffffffffffffffffffffffffffffffffffff16815260200180602001878152602001861515151581526020018581526020018415151515815260200183810383528a818151815260200191508051906020019080838360005b8381101561095757808201518184015260208101905061093c565b50505050905090810190601f1680156109845780820380516001836020036101000a031916815260200191505b50838103825288818151815260200191508051906020019080838360005b838110156109bd5780820151818401526020810190506109a2565b50505050905090810190601f1680156109ea5780820380516001836020036101000a031916815260200191505b50995050505050505050505060405180910390f35b348015610a0b57600080fd5b50610a4e60048036036020811015610a2257600080fd5b81019080803573ffffffffffffffffffffffffffffffffffffffff169060200190929190505050611932565b60405180806020018473ffffffffffffffffffffffffffffffffffffffff1673ffffffffffffffffffffffffffffffffffffffff16815260200180602001838103835286818151815260200191508051906020019080838360005b83811015610ac4578082015181840152602081019050610aa9565b50505050905090810190601f168015610af15780820380516001836020036101000a031916815260200191505b50838103825284818151815260200191508051906020019080838360005b83811015610b2a578082015181840152602081019050610b0f565b50505050905090810190601f168015610b575780820380516001836020036101000a031916815260200191505b509550505050505060405180910390f35b610b70611aac565b60e0604051908101604052808581526020013373ffffffffffffffffffffffffffffffffffffffff168152602001848152602001838152602001600015158152602001600081526020016000151581525090506001600660008282540192505081905550806005600060065481526020019081526020016000206000820151816000019080519060200190610c06929190611b04565b5060208201518160010160006101000a81548173ffffffffffffffffffffffffffffffffffffffff021916908373ffffffffffffffffffffffffffffffffffffffff1602179055506040820151816002019080519060200190610c6a929190611b04565b506060820151816003015560808201518160040160006101000a81548160ff02191690831515021790555060a0820151816005015560c08201518160060160006101000a81548160ff0219169083151502179055509050507fac9ee41c0a3c2a60ba524d75d58dff1c4f50582519a303cabfb64e9e2255eab884338585600080600060405180806020018873ffffffffffffffffffffffffffffffffffffffff1673ffffffffffffffffffffffffffffffffffffffff16815260200180602001878152602001861515151581526020018581526020018415151515815260200183810383528a818151815260200191508051906020019080838360005b83811015610d82578082015181840152602081019050610d67565b50505050905090810190601f168015610daf5780820380516001836020036101000a031916815260200191505b50838103825288818151815260200191508051906020019080838360005b83811015610de8578082015181840152602081019050610dcd565b50505050905090810190601f168015610e155780820380516001836020036101000a031916815260200191505b50995050505050505050505060405180910390a150505050565b6000600654905090565b6005602052806000526040600020600091509050806000018054600181600116156101000203166002900480601f016020809104026020016040519081016040528092919081815260200182805460018160011615610100020316600290048015610ee55780601f10610eba57610100808354040283529160200191610ee5565b820191906000526020600020905b815481529060010190602001808311610ec857829003601f168201915b5050505050908060010160009054906101000a900473ffffffffffffffffffffffffffffffffffffffff1690806002018054600181600116156101000203166002900480601f016020809104026020016040519081016040528092919081815260200182805460018160011615610100020316600290048015610fa95780601f10610f7e57610100808354040283529160200191610fa9565b820191906000526020600020905b815481529060010190602001808311610f8c57829003601f168201915b5050505050908060030154908060040160009054906101000a900460ff16908060050154908060060160009054906101000a900460ff16905087565b6000600360003373ffffffffffffffffffffffffffffffffffffffff1673ffffffffffffffffffffffffffffffffffffffff1681526020019081526020016000206004018281548110151561103657fe5b9060005260206000200160009054906101000a900473ffffffffffffffffffffffffffffffffffffffff169050919050565b611070611b84565b6060604051908101604052808481526020013373ffffffffffffffffffffffffffffffffffffffff16815260200183815250905080600460003373ffffffffffffffffffffffffffffffffffffffff1673ffffffffffffffffffffffffffffffffffffffff1681526020019081526020016000206000820151816000019080519060200190611100929190611b04565b5060208201518160010160006101000a81548173ffffffffffffffffffffffffffffffffffffffff021916908373ffffffffffffffffffffffffffffffffffffffff1602179055506040820151816002019080519060200190611164929190611b04565b509050507f12cb44b0910757f01bb81b6c733eac1c8f7ccf741c357f3cf4892defa4c39d5383338460405180806020018473ffffffffffffffffffffffffffffffffffffffff1673ffffffffffffffffffffffffffffffffffffffff16815260200180602001838103835286818151815260200191508051906020019080838360005b838110156112025780820151818401526020810190506111e7565b50505050905090810190601f16801561122f5780820380516001836020036101000a031916815260200191505b50838103825284818151815260200191508051906020019080838360005b8381101561126857808201518184015260208101905061124d565b50505050905090810190601f1680156112955780820380516001836020036101000a031916815260200191505b509550505050505060405180910390a1505050565b60065481565b6112b8611bbc565b60a0604051908101604052808481526020013373ffffffffffffffffffffffffffffffffffffffff1681526020018381526020016000815260200160006040519080825280602002602001820160405280156113235781602001602082028038833980820191505090505b50815250905080600360003373ffffffffffffffffffffffffffffffffffffffff1673ffffffffffffffffffffffffffffffffffffffff1681526020019081526020016000206000820151816000019080519060200190611385929190611b04565b5060208201518160010160006101000a81548173ffffffffffffffffffffffffffffffffffffffff021916908373ffffffffffffffffffffffffffffffffffffffff16021790555060408201518160020190805190602001906113e9929190611b04565b50606082015181600301556080820151816004019080519060200190611410929190611c02565b509050507fe57e8ec5f7c0252d278f1d91e7ebf4e4ad1b5572e0006b54909e44417decdd5183338460405180806020018473ffffffffffffffffffffffffffffffffffffffff1673ffffffffffffffffffffffffffffffffffffffff16815260200180602001838103835286818151815260200191508051906020019080838360005b838110156114ae578082015181840152602081019050611493565b50505050905090810190601f1680156114db5780820380516001836020036101000a031916815260200191505b50838103825284818151815260200191508051906020019080838360005b838110156115145780820151818401526020810190506114f9565b50505050905090810190601f1680156115415780820380516001836020036101000a031916815260200191505b509550505050505060405180910390a1505050565b6003602052806000526040600020600091509050806000018054600181600116156101000203166002900480601f0160208091040260200160405190810160405280929190818152602001828054600181600116156101000203166002900480156116025780601f106115d757610100808354040283529160200191611602565b820191906000526020600020905b8154815290600101906020018083116115e557829003601f168201915b5050505050908060010160009054906101000a900473ffffffffffffffffffffffffffffffffffffffff1690806002018054600181600116156101000203166002900480601f0160208091040260200160405190810160405280929190818152602001828054600181600116156101000203166002900480156116c65780601f1061169b576101008083540402835291602001916116c6565b820191906000526020600020905b8154815290600101906020018083116116a957829003601f168201915b5050505050908060030154905084565b6060600060606000806000806116ea611aac565b600560008a815260200190815260200160002060e06040519081016040529081600082018054600181600116156101000203166002900480601f0160208091040260200160405190810160405280929190818152602001828054600181600116156101000203166002900480156117a25780601f10611777576101008083540402835291602001916117a2565b820191906000526020600020905b81548152906001019060200180831161178557829003601f168201915b505050505081526020016001820160009054906101000a900473ffffffffffffffffffffffffffffffffffffffff1673ffffffffffffffffffffffffffffffffffffffff1673ffffffffffffffffffffffffffffffffffffffff168152602001600282018054600181600116156101000203166002900480601f01602080910402602001604051908101604052809291908181526020018280546001816001161561010002031660029004801561189a5780601f1061186f5761010080835404028352916020019161189a565b820191906000526020600020905b81548152906001019060200180831161187d57829003601f168201915b50505050508152602001600382015481526020016004820160009054906101000a900460ff16151515158152602001600582015481526020016006820160009054906101000a900460ff1615151515815250509050806000015181602001518260400151836060015184608001518560a001518660c00151869650849450975097509750975097509750975050919395979092949650565b6004602052806000526040600020600091509050806000018054600181600116156101000203166002900480601f0160208091040260200160405190810160405280929190818152602001828054600181600116156101000203166002900480156119de5780601f106119b3576101008083540402835291602001916119de565b820191906000526020600020905b8154815290600101906020018083116119c157829003601f168201915b5050505050908060010160009054906101000a900473ffffffffffffffffffffffffffffffffffffffff1690806002018054600181600116156101000203166002900480601f016020809104026020016040519081016040528092919081815260200182805460018160011615610100020316600290048015611aa25780601f10611a7757610100808354040283529160200191611aa2565b820191906000526020600020905b815481529060010190602001808311611a8557829003601f168201915b5050505050905083565b60e06040519081016040528060608152602001600073ffffffffffffffffffffffffffffffffffffffff1681526020016060815260200160008152602001600015158152602001600081526020016000151581525090565b828054600181600116156101000203166002900490600052602060002090601f016020900481019282601f10611b4557805160ff1916838001178555611b73565b82800160010185558215611b73579182015b82811115611b72578251825591602001919060010190611b57565b5b509050611b809190611c8c565b5090565b60606040519081016040528060608152602001600073ffffffffffffffffffffffffffffffffffffffff168152602001606081525090565b60a06040519081016040528060608152602001600073ffffffffffffffffffffffffffffffffffffffff1681526020016060815260200160008152602001606081525090565b828054828255906000526020600020908101928215611c7b579160200282015b82811115611c7a5782518260006101000a81548173ffffffffffffffffffffffffffffffffffffffff021916908373ffffffffffffffffffffffffffffffffffffffff16021790555091602001919060010190611c22565b5b509050611c889190611cb1565b5090565b611cae91905b80821115611caa576000816000905550600101611c92565b5090565b90565b611cf191905b80821115611ced57600081816101000a81549073ffffffffffffffffffffffffffffffffffffffff021916905550600101611cb7565b5090565b9056fea165627a7a72305820020a645c1b0f653211af9c675dd4bf30483d50537f8accc8c71d9a624fcc8c2e0029",
  "source": "// SPDX-License-Identifier: MIT\r\npragma solidity >=0.4.22 <0.8.0;\r\n\r\ncontract Hello {\r\n    //POJO for Admin\r\n    struct Admin {\r\n        string adminName;\r\n        string adminEmail;\r\n        address adminAddress;\r\n    }\r\n\r\n     //POJO for Donor\r\n    struct Donor{\r\n        string donorName;\r\n        address donorAddress;\r\n        string donorEmail;\r\n        uint participatedCount;\r\n        address[] participatedProjects;\r\n    }\r\n\r\n    // POJO for Benifactor\r\n    struct Benifactor{\r\n        string benifactorName;\r\n        address benifactorAddress;\r\n        string benifactorEmail;\r\n    }\r\n\r\n    //POJO for Charity Organisation\r\n    struct CharityProject{\r\n        string projectName;\r\n        address createrAddress;\r\n        string projectDescription;\r\n        uint amountRequire;\r\n        bool isCompleted;\r\n        uint amountGot;\r\n        bool isApproved;\r\n    }\r\n\r\n    //Organiser / Admin (Who created this Smart Contract)\r\n    Admin private admin;\r\n    \r\n    mapping(address => Donor) public donors;\r\n    mapping(address => Benifactor) public benifactors;\r\n    mapping(uint => CharityProject) public charityProjects;\r\n    uint public totalProjects;\r\n\r\n    //Constructor => Set's Admin only once at starting\r\n    constructor () public {\r\n        admin = Admin({\r\n            adminName: \"root\",\r\n            adminEmail: \"root.charitychain.in\",\r\n            adminAddress: msg.sender\r\n        });\r\n\r\n        totalProjects = 0;\r\n    }\r\n\r\n    event newBenifactorAdded (\r\n        string benifactorName,\r\n        address benifactorAddress,\r\n        string benifactorEmail\r\n    );\r\n\r\n    event newDonorAdded (\r\n        string donorName,\r\n        address donorAddress,\r\n        string donorEmail\r\n    );\r\n\r\n    event newProjectAdded (\r\n        string projectName,\r\n        address createrAddress,\r\n        string projectDescription,\r\n        uint amountRequire,\r\n        bool isCompleted,\r\n        uint amountGot,\r\n        bool isApproved\r\n    );\r\n\r\n    // Add new Benifactor\r\n    function addNewBenifactor(string memory name, string memory email) public {\r\n        Benifactor memory newBenifactor = Benifactor({\r\n            benifactorName: name,\r\n            benifactorAddress: msg.sender,\r\n            benifactorEmail: email\r\n        });\r\n\r\n        benifactors[msg.sender] = newBenifactor;\r\n        emit newBenifactorAdded(name, msg.sender, email);\r\n    }  \r\n\r\n\r\n    //Add new Donor\r\n    function addNewDonor(string memory name, string memory email) public {\r\n\r\n        Donor memory newDonor = Donor({\r\n            donorName: name,\r\n            donorAddress: msg.sender,\r\n            donorEmail: email,\r\n            participatedCount: 0,\r\n            participatedProjects: new address[](0)\r\n        });\r\n\r\n        donors[msg.sender] = newDonor;\r\n        emit newDonorAdded(name, msg.sender, email);\r\n    } \r\n\r\n    \r\n    //Add new Project\r\n    function addNewProject(string memory name, string memory desc, uint amtReq) public {\r\n\r\n        CharityProject memory newProject = CharityProject({\r\n            projectName : name,\r\n            createrAddress : msg.sender,\r\n            projectDescription : desc,\r\n            amountRequire : amtReq,\r\n            isCompleted: false,\r\n            amountGot: 0,\r\n            isApproved: false\r\n        });\r\n\r\n        totalProjects += 1;\r\n        charityProjects[totalProjects] = newProject;\r\n        emit newProjectAdded(name, msg.sender, desc, amtReq, false, 0, false);\r\n    }\r\n\r\n    function getProject(uint ind) public\r\n     returns(string memory projectName, address createrAddress, string memory projectDescription,\r\n            uint amountRequire, bool isCompleted, uint amountGot, bool isApproved) {\r\n\r\n         CharityProject memory p = charityProjects[ind];\r\n\r\n        return (p.projectName, p.createrAddress, p.projectDescription, p.amountRequire, p.isCompleted, p.amountGot, p.isApproved);\r\n    } \r\n\r\n    function getDonorProjects(uint ind) public view returns(address) {\r\n        return donors[msg.sender].participatedProjects[ind];\r\n    }\r\n\r\n    function length() public view returns(uint) {\r\n        return totalProjects;\r\n    }\r\n\r\n}",
  "sourcePath": "D:\\College Project Work\\CharityChain - A Blockchain Based Charity Application\\Actual Code\\2\\contracts\\Hello.sol",
  "compiler": {
    "name": "solc",
    "version": "0.5.0+commit.1d4f565a.Emscripten.clang"
  },
  "schemaVersion": "3.0.23",
  "updatedAt": "2022-04-10T05:38:35.879Z",
  "networkType": "ethereum",
  "devdoc": {
    "methods": {}
  },
  "userdoc": {
    "methods": {}
  }
}