{
  "contractName": "Hello",
  "abi": [
    {
      "constant": true,
      "inputs": [
        {
          "name": "",
          "type": "uint256"
        }
      ],
      "name": "charityProjects",
      "outputs": [
        {
          "name": "projectId",
          "type": "uint256"
        },
        {
          "name": "projectName",
          "type": "string"
        },
        {
          "name": "createrAddress",
          "type": "address"
        },
        {
          "name": "projectDescription",
          "type": "string"
        },
        {
          "name": "amountRequire",
          "type": "uint256"
        },
        {
          "name": "isCompleted",
          "type": "bool"
        },
        {
          "name": "amountGot",
          "type": "uint256"
        },
        {
          "name": "isApproved",
          "type": "bool"
        }
      ],
      "payable": false,
      "stateMutability": "view",
      "type": "function"
    },
    {
      "constant": true,
      "inputs": [],
      "name": "totalProjects",
      "outputs": [
        {
          "name": "",
          "type": "uint256"
        }
      ],
      "payable": false,
      "stateMutability": "view",
      "type": "function"
    },
    {
      "constant": true,
      "inputs": [
        {
          "name": "",
          "type": "address"
        }
      ],
      "name": "donors",
      "outputs": [
        {
          "name": "donorName",
          "type": "string"
        },
        {
          "name": "donorAddress",
          "type": "address"
        },
        {
          "name": "donorEmail",
          "type": "string"
        },
        {
          "name": "participatedCount",
          "type": "uint256"
        }
      ],
      "payable": false,
      "stateMutability": "view",
      "type": "function"
    },
    {
      "constant": true,
      "inputs": [],
      "name": "admin",
      "outputs": [
        {
          "name": "adminName",
          "type": "string"
        },
        {
          "name": "adminEmail",
          "type": "string"
        },
        {
          "name": "adminAddress",
          "type": "address"
        }
      ],
      "payable": false,
      "stateMutability": "view",
      "type": "function"
    },
    {
      "constant": true,
      "inputs": [
        {
          "name": "",
          "type": "address"
        }
      ],
      "name": "benifactors",
      "outputs": [
        {
          "name": "benifactorName",
          "type": "string"
        },
        {
          "name": "benifactorAddress",
          "type": "address"
        },
        {
          "name": "benifactorEmail",
          "type": "string"
        }
      ],
      "payable": false,
      "stateMutability": "view",
      "type": "function"
    },
    {
      "inputs": [],
      "payable": false,
      "stateMutability": "nonpayable",
      "type": "constructor"
    },
    {
      "anonymous": false,
      "inputs": [
        {
          "indexed": false,
          "name": "benifactorName",
          "type": "string"
        },
        {
          "indexed": false,
          "name": "benifactorAddress",
          "type": "address"
        },
        {
          "indexed": false,
          "name": "benifactorEmail",
          "type": "string"
        }
      ],
      "name": "newBenifactorAdded",
      "type": "event"
    },
    {
      "anonymous": false,
      "inputs": [
        {
          "indexed": false,
          "name": "donorName",
          "type": "string"
        },
        {
          "indexed": false,
          "name": "donorAddress",
          "type": "address"
        },
        {
          "indexed": false,
          "name": "donorEmail",
          "type": "string"
        }
      ],
      "name": "newDonorAdded",
      "type": "event"
    },
    {
      "anonymous": false,
      "inputs": [
        {
          "indexed": false,
          "name": "projectId",
          "type": "uint256"
        },
        {
          "indexed": false,
          "name": "projectName",
          "type": "string"
        },
        {
          "indexed": false,
          "name": "createrAddress",
          "type": "address"
        },
        {
          "indexed": false,
          "name": "projectDescription",
          "type": "string"
        },
        {
          "indexed": false,
          "name": "amountRequire",
          "type": "uint256"
        },
        {
          "indexed": false,
          "name": "isCompleted",
          "type": "bool"
        },
        {
          "indexed": false,
          "name": "amountGot",
          "type": "uint256"
        },
        {
          "indexed": false,
          "name": "isApproved",
          "type": "bool"
        }
      ],
      "name": "newProjectAdded",
      "type": "event"
    },
    {
      "anonymous": false,
      "inputs": [
        {
          "indexed": false,
          "name": "projectId",
          "type": "uint256"
        },
        {
          "indexed": false,
          "name": "projectName",
          "type": "string"
        },
        {
          "indexed": false,
          "name": "createrAddress",
          "type": "address"
        },
        {
          "indexed": false,
          "name": "projectDescription",
          "type": "string"
        },
        {
          "indexed": false,
          "name": "amountRequire",
          "type": "uint256"
        },
        {
          "indexed": false,
          "name": "isCompleted",
          "type": "bool"
        },
        {
          "indexed": false,
          "name": "amountGot",
          "type": "uint256"
        },
        {
          "indexed": false,
          "name": "isApproved",
          "type": "bool"
        }
      ],
      "name": "projectApproved",
      "type": "event"
    },
    {
      "anonymous": false,
      "inputs": [
        {
          "indexed": false,
          "name": "status",
          "type": "bool"
        },
        {
          "indexed": false,
          "name": "message",
          "type": "string"
        }
      ],
      "name": "returnMessage",
      "type": "event"
    },
    {
      "constant": true,
      "inputs": [],
      "name": "getAdmin",
      "outputs": [
        {
          "name": "",
          "type": "address"
        }
      ],
      "payable": false,
      "stateMutability": "view",
      "type": "function"
    },
    {
      "constant": false,
      "inputs": [
        {
          "name": "name",
          "type": "string"
        },
        {
          "name": "email",
          "type": "string"
        }
      ],
      "name": "addNewBenifactor",
      "outputs": [],
      "payable": false,
      "stateMutability": "nonpayable",
      "type": "function"
    },
    {
      "constant": false,
      "inputs": [
        {
          "name": "name",
          "type": "string"
        },
        {
          "name": "email",
          "type": "string"
        }
      ],
      "name": "addNewDonor",
      "outputs": [],
      "payable": false,
      "stateMutability": "nonpayable",
      "type": "function"
    },
    {
      "constant": false,
      "inputs": [
        {
          "name": "name",
          "type": "string"
        },
        {
          "name": "desc",
          "type": "string"
        },
        {
          "name": "amtReq",
          "type": "uint256"
        }
      ],
      "name": "addNewProject",
      "outputs": [],
      "payable": false,
      "stateMutability": "nonpayable",
      "type": "function"
    },
    {
      "constant": false,
      "inputs": [
        {
          "name": "id",
          "type": "uint256"
        }
      ],
      "name": "approvProject",
      "outputs": [],
      "payable": false,
      "stateMutability": "nonpayable",
      "type": "function"
    }
  ],
  "bytecode": "0x608060405260006006553480156200001657600080fd5b506060604051908101604052806040805190810160405280600481526020017f726f6f740000000000000000000000000000000000000000000000000000000081525081526020016040805190810160405280601481526020017f726f6f742e63686172697479636861696e2e696e00000000000000000000000081525081526020013373ffffffffffffffffffffffffffffffffffffffff16815250600080820151816000019080519060200190620000d292919062000318565b506020820151816001019080519060200190620000f192919062000318565b5060408201518160020160006101000a81548173ffffffffffffffffffffffffffffffffffffffff021916908373ffffffffffffffffffffffffffffffffffffffff16021790555090505060016006819055506200014e6200039f565b6101006040519081016040528060065481526020016040805190810160405280600481526020017f6e616d650000000000000000000000000000000000000000000000000000000081525081526020013373ffffffffffffffffffffffffffffffffffffffff1681526020016040805190810160405280600481526020017f646573630000000000000000000000000000000000000000000000000000000081525081526020016000815260200160001515815260200160008152602001600015158152509050806005600060065481526020019081526020016000206000820151816000015560208201518160010190805190602001906200025392919062000318565b5060408201518160020160006101000a81548173ffffffffffffffffffffffffffffffffffffffff021916908373ffffffffffffffffffffffffffffffffffffffff1602179055506060820151816003019080519060200190620002b992919062000318565b506080820151816004015560a08201518160050160006101000a81548160ff02191690831515021790555060c0820151816006015560e08201518160070160006101000a81548160ff0219169083151502179055509050505062000427565b828054600181600116156101000203166002900490600052602060002090601f016020900481019282601f106200035b57805160ff19168380011785556200038c565b828001600101855582156200038c579182015b828111156200038b5782518255916020019190600101906200036e565b5b5090506200039b9190620003ff565b5090565b610100604051908101604052806000815260200160608152602001600073ffffffffffffffffffffffffffffffffffffffff1681526020016060815260200160008152602001600015158152602001600081526020016000151581525090565b6200042491905b808211156200042057600081600090555060010162000406565b5090565b90565b6122b880620004376000396000f3fe6080604052600436106100a4576000357c0100000000000000000000000000000000000000000000000000000000900463ffffffff1680631bf71d4b146100a95780631fd421f4146102125780636e9960c314610390578063992f317e146103e75780639c361e4e14610546578063c9b64ced14610571578063ca0cdea8146106d0578063d196c06214610840578063f851a4401461087b578063fba6f21d146109aa575b600080fd5b3480156100b557600080fd5b50610210600480360360608110156100cc57600080fd5b81019080803590602001906401000000008111156100e957600080fd5b8201836020820111156100fb57600080fd5b8035906020019184600183028401116401000000008311171561011d57600080fd5b91908080601f016020809104026020016040519081016040528093929190818152602001838380828437600081840152601f19601f8201169050808301925050505050505091929192908035906020019064010000000081111561018057600080fd5b82018360208201111561019257600080fd5b803590602001918460018302840111640100000000831117156101b457600080fd5b91908080601f016020809104026020016040519081016040528093929190818152602001838380828437600081840152601f19601f82011690508083019250505050505050919291929080359060200190929190505050610b13565b005b34801561021e57600080fd5b5061024b6004803603602081101561023557600080fd5b8101908080359060200190929190505050610df7565b60405180898152602001806020018873ffffffffffffffffffffffffffffffffffffffff1673ffffffffffffffffffffffffffffffffffffffff16815260200180602001878152602001861515151581526020018581526020018415151515815260200183810383528a818151815260200191508051906020019080838360005b838110156102e75780820151818401526020810190506102cc565b50505050905090810190601f1680156103145780820380516001836020036101000a031916815260200191505b50838103825288818151815260200191508051906020019080838360005b8381101561034d578082015181840152602081019050610332565b50505050905090810190601f16801561037a5780820380516001836020036101000a031916815260200191505b509a505050505050505050505060405180910390f35b34801561039c57600080fd5b506103a5610fa9565b604051808273ffffffffffffffffffffffffffffffffffffffff1673ffffffffffffffffffffffffffffffffffffffff16815260200191505060405180910390f35b3480156103f357600080fd5b506105446004803603604081101561040a57600080fd5b810190808035906020019064010000000081111561042757600080fd5b82018360208201111561043957600080fd5b8035906020019184600183028401116401000000008311171561045b57600080fd5b91908080601f016020809104026020016040519081016040528093929190818152602001838380828437600081840152601f19601f820116905080830192505050505050509192919290803590602001906401000000008111156104be57600080fd5b8201836020820111156104d057600080fd5b803590602001918460018302840111640100000000831117156104f257600080fd5b91908080601f016020809104026020016040519081016040528093929190818152602001838380828437600081840152601f19601f820116905080830192505050505050509192919290505050610fd5565b005b34801561055257600080fd5b5061055b61139c565b6040518082815260200191505060405180910390f35b34801561057d57600080fd5b506106ce6004803603604081101561059457600080fd5b81019080803590602001906401000000008111156105b157600080fd5b8201836020820111156105c357600080fd5b803590602001918460018302840111640100000000831117156105e557600080fd5b91908080601f016020809104026020016040519081016040528093929190818152602001838380828437600081840152601f19601f8201169050808301925050505050505091929192908035906020019064010000000081111561064857600080fd5b82018360208201111561065a57600080fd5b8035906020019184600183028401116401000000008311171561067c57600080fd5b91908080601f016020809104026020016040519081016040528093929190818152602001838380828437600081840152601f19601f8201169050808301925050505050505091929192905050506113a2565b005b3480156106dc57600080fd5b5061071f600480360360208110156106f357600080fd5b81019080803573ffffffffffffffffffffffffffffffffffffffff169060200190929190505050611648565b60405180806020018573ffffffffffffffffffffffffffffffffffffffff1673ffffffffffffffffffffffffffffffffffffffff16815260200180602001848152602001838103835287818151815260200191508051906020019080838360005b8381101561079b578082015181840152602081019050610780565b50505050905090810190601f1680156107c85780820380516001836020036101000a031916815260200191505b50838103825285818151815260200191508051906020019080838360005b838110156108015780820151818401526020810190506107e6565b50505050905090810190601f16801561082e5780820380516001836020036101000a031916815260200191505b50965050505050505060405180910390f35b34801561084c57600080fd5b506108796004803603602081101561086357600080fd5b81019080803590602001909291905050506117c8565b005b34801561088757600080fd5b50610890611d5a565b6040518080602001806020018473ffffffffffffffffffffffffffffffffffffffff1673ffffffffffffffffffffffffffffffffffffffff168152602001838103835286818151815260200191508051906020019080838360005b838110156109065780820151818401526020810190506108eb565b50505050905090810190601f1680156109335780820380516001836020036101000a031916815260200191505b50838103825285818151815260200191508051906020019080838360005b8381101561096c578082015181840152602081019050610951565b50505050905090810190601f1680156109995780820380516001836020036101000a031916815260200191505b509550505050505060405180910390f35b3480156109b657600080fd5b506109f9600480360360208110156109cd57600080fd5b81019080803573ffffffffffffffffffffffffffffffffffffffff169060200190929190505050611ec2565b60405180806020018473ffffffffffffffffffffffffffffffffffffffff1673ffffffffffffffffffffffffffffffffffffffff16815260200180602001838103835286818151815260200191508051906020019080838360005b83811015610a6f578082015181840152602081019050610a54565b50505050905090810190601f168015610a9c5780820380516001836020036101000a031916815260200191505b50838103825284818151815260200191508051906020019080838360005b83811015610ad5578082015181840152602081019050610aba565b50505050905090810190601f168015610b025780820380516001836020036101000a031916815260200191505b509550505050505060405180910390f35b6001600660008282540192505081905550610b2c61203c565b6101006040519081016040528060065481526020018581526020013373ffffffffffffffffffffffffffffffffffffffff1681526020018481526020018381526020016000151581526020016000815260200160001515815250905080600560006006548152602001908152602001600020600082015181600001556020820151816001019080519060200190610bc492919061209c565b5060408201518160020160006101000a81548173ffffffffffffffffffffffffffffffffffffffff021916908373ffffffffffffffffffffffffffffffffffffffff1602179055506060820151816003019080519060200190610c2892919061209c565b506080820151816004015560a08201518160050160006101000a81548160ff02191690831515021790555060c0820151816006015560e08201518160070160006101000a81548160ff0219169083151502179055509050507f085782110086c6400b2481bc31b3c34e084e3f917a70c7d0b4575b833bcba80d60065485338686600080600060405180898152602001806020018873ffffffffffffffffffffffffffffffffffffffff1673ffffffffffffffffffffffffffffffffffffffff16815260200180602001878152602001861515151581526020018581526020018415151515815260200183810383528a818151815260200191508051906020019080838360005b83811015610d49578082015181840152602081019050610d2e565b50505050905090810190601f168015610d765780820380516001836020036101000a031916815260200191505b50838103825288818151815260200191508051906020019080838360005b83811015610daf578082015181840152602081019050610d94565b50505050905090810190601f168015610ddc5780820380516001836020036101000a031916815260200191505b509a505050505050505050505060405180910390a150505050565b6005602052806000526040600020600091509050806000015490806001018054600181600116156101000203166002900480601f016020809104026020016040519081016040528092919081815260200182805460018160011615610100020316600290048015610ea95780601f10610e7e57610100808354040283529160200191610ea9565b820191906000526020600020905b815481529060010190602001808311610e8c57829003601f168201915b5050505050908060020160009054906101000a900473ffffffffffffffffffffffffffffffffffffffff1690806003018054600181600116156101000203166002900480601f016020809104026020016040519081016040528092919081815260200182805460018160011615610100020316600290048015610f6d5780601f10610f4257610100808354040283529160200191610f6d565b820191906000526020600020905b815481529060010190602001808311610f5057829003601f168201915b5050505050908060040154908060050160009054906101000a900460ff16908060060154908060070160009054906101000a900460ff16905088565b60008060020160009054906101000a900473ffffffffffffffffffffffffffffffffffffffff16905090565b60405160200180600001905060405160208183030381529060405280519060200120600460003373ffffffffffffffffffffffffffffffffffffffff1673ffffffffffffffffffffffffffffffffffffffff16815260200190815260200160002060000160405160200180828054600181600116156101000203166002900480156110975780601f10611075576101008083540402835291820191611097565b820191906000526020600020905b815481529060010190602001808311611083575b505091505060405160208183030381529060405280519060200120141515611159577fb245b859ee5c338a136b1962bcac64d1970a5b2bd5e70bd853e35190ef7c24aa6000604051808215151515815260200180602001828103825260248152602001807f5573657220776974682074686973206164647265737320616c7265616479206581526020017f78697374000000000000000000000000000000000000000000000000000000008152506040019250505060405180910390a1611398565b61116161211c565b6060604051908101604052808481526020013373ffffffffffffffffffffffffffffffffffffffff16815260200183815250905080600460003373ffffffffffffffffffffffffffffffffffffffff1673ffffffffffffffffffffffffffffffffffffffff16815260200190815260200160002060008201518160000190805190602001906111f192919061209c565b5060208201518160010160006101000a81548173ffffffffffffffffffffffffffffffffffffffff021916908373ffffffffffffffffffffffffffffffffffffffff160217905550604082015181600201908051906020019061125592919061209c565b509050507f12cb44b0910757f01bb81b6c733eac1c8f7ccf741c357f3cf4892defa4c39d5383338460405180806020018473ffffffffffffffffffffffffffffffffffffffff1673ffffffffffffffffffffffffffffffffffffffff16815260200180602001838103835286818151815260200191508051906020019080838360005b838110156112f35780820151818401526020810190506112d8565b50505050905090810190601f1680156113205780820380516001836020036101000a031916815260200191505b50838103825284818151815260200191508051906020019080838360005b8381101561135957808201518184015260208101905061133e565b50505050905090810190601f1680156113865780820380516001836020036101000a031916815260200191505b509550505050505060405180910390a1505b5050565b60065481565b6113aa612154565b60a0604051908101604052808481526020013373ffffffffffffffffffffffffffffffffffffffff1681526020018381526020016000815260200160006040519080825280602002602001820160405280156114155781602001602082028038833980820191505090505b50815250905080600360003373ffffffffffffffffffffffffffffffffffffffff1673ffffffffffffffffffffffffffffffffffffffff168152602001908152602001600020600082015181600001908051906020019061147792919061209c565b5060208201518160010160006101000a81548173ffffffffffffffffffffffffffffffffffffffff021916908373ffffffffffffffffffffffffffffffffffffffff16021790555060408201518160020190805190602001906114db92919061209c565b5060608201518160030155608082015181600401908051906020019061150292919061219a565b509050507fe57e8ec5f7c0252d278f1d91e7ebf4e4ad1b5572e0006b54909e44417decdd5183338460405180806020018473ffffffffffffffffffffffffffffffffffffffff1673ffffffffffffffffffffffffffffffffffffffff16815260200180602001838103835286818151815260200191508051906020019080838360005b838110156115a0578082015181840152602081019050611585565b50505050905090810190601f1680156115cd5780820380516001836020036101000a031916815260200191505b50838103825284818151815260200191508051906020019080838360005b838110156116065780820151818401526020810190506115eb565b50505050905090810190601f1680156116335780820380516001836020036101000a031916815260200191505b509550505050505060405180910390a1505050565b6003602052806000526040600020600091509050806000018054600181600116156101000203166002900480601f0160208091040260200160405190810160405280929190818152602001828054600181600116156101000203166002900480156116f45780601f106116c9576101008083540402835291602001916116f4565b820191906000526020600020905b8154815290600101906020018083116116d757829003601f168201915b5050505050908060010160009054906101000a900473ffffffffffffffffffffffffffffffffffffffff1690806002018054600181600116156101000203166002900480601f0160208091040260200160405190810160405280929190818152602001828054600181600116156101000203166002900480156117b85780601f1061178d576101008083540402835291602001916117b8565b820191906000526020600020905b81548152906001019060200180831161179b57829003601f168201915b5050505050908060030154905084565b6117d061203c565b61010060405190810160405280838152602001600560008581526020019081526020016000206001018054600181600116156101000203166002900480601f01602080910402602001604051908101604052809291908181526020018280546001816001161561010002031660029004801561188d5780601f106118625761010080835404028352916020019161188d565b820191906000526020600020905b81548152906001019060200180831161187057829003601f168201915b505050505081526020016005600085815260200190815260200160002060020160009054906101000a900473ffffffffffffffffffffffffffffffffffffffff1673ffffffffffffffffffffffffffffffffffffffff168152602001600560008581526020019081526020016000206003018054600181600116156101000203166002900480601f0160208091040260200160405190810160405280929190818152602001828054600181600116156101000203166002900480156119935780601f1061196857610100808354040283529160200191611993565b820191906000526020600020905b81548152906001019060200180831161197657829003601f168201915b50505050508152602001600560008581526020019081526020016000206004015481526020016005600085815260200190815260200160002060050160009054906101000a900460ff1615158152602001600560008581526020019081526020016000206006015481526020016001151581525090508060056000848152602001908152602001600020600082015181600001556020820151816001019080519060200190611a4392919061209c565b5060408201518160020160006101000a81548173ffffffffffffffffffffffffffffffffffffffff021916908373ffffffffffffffffffffffffffffffffffffffff1602179055506060820151816003019080519060200190611aa792919061209c565b506080820151816004015560a08201518160050160006101000a81548160ff02191690831515021790555060c0820151816006015560e08201518160070160006101000a81548160ff0219169083151502179055509050507f3e799c0fa1c73368a60dc49cf26e248ca4cfd83eec54d1593e39db79e511034282600560008581526020019081526020016000206001016005600086815260200190815260200160002060020160009054906101000a900473ffffffffffffffffffffffffffffffffffffffff166005600087815260200190815260200160002060030160056000888152602001908152602001600020600401546005600089815260200190815260200160002060050160009054906101000a900460ff16600560008a815260200190815260200160002060060154600160405180898152602001806020018873ffffffffffffffffffffffffffffffffffffffff1673ffffffffffffffffffffffffffffffffffffffff16815260200180602001878152602001861515151581526020018581526020018415151515815260200183810383528a818154600181600116156101000203166002900481526020019150805460018160011615610100020316600290048015611cbd5780601f10611c9257610100808354040283529160200191611cbd565b820191906000526020600020905b815481529060010190602001808311611ca057829003601f168201915b5050838103825288818154600181600116156101000203166002900481526020019150805460018160011615610100020316600290048015611d405780601f10611d1557610100808354040283529160200191611d40565b820191906000526020600020905b815481529060010190602001808311611d2357829003601f168201915b50509a505050505050505050505060405180910390a15050565b6000806000018054600181600116156101000203166002900480601f016020809104026020016040519081016040528092919081815260200182805460018160011615610100020316600290048015611df45780601f10611dc957610100808354040283529160200191611df4565b820191906000526020600020905b815481529060010190602001808311611dd757829003601f168201915b505050505090806001018054600181600116156101000203166002900480601f016020809104026020016040519081016040528092919081815260200182805460018160011615610100020316600290048015611e925780601f10611e6757610100808354040283529160200191611e92565b820191906000526020600020905b815481529060010190602001808311611e7557829003601f168201915b5050505050908060020160009054906101000a900473ffffffffffffffffffffffffffffffffffffffff16905083565b6004602052806000526040600020600091509050806000018054600181600116156101000203166002900480601f016020809104026020016040519081016040528092919081815260200182805460018160011615610100020316600290048015611f6e5780601f10611f4357610100808354040283529160200191611f6e565b820191906000526020600020905b815481529060010190602001808311611f5157829003601f168201915b5050505050908060010160009054906101000a900473ffffffffffffffffffffffffffffffffffffffff1690806002018054600181600116156101000203166002900480601f0160208091040260200160405190810160405280929190818152602001828054600181600116156101000203166002900480156120325780601f1061200757610100808354040283529160200191612032565b820191906000526020600020905b81548152906001019060200180831161201557829003601f168201915b5050505050905083565b610100604051908101604052806000815260200160608152602001600073ffffffffffffffffffffffffffffffffffffffff1681526020016060815260200160008152602001600015158152602001600081526020016000151581525090565b828054600181600116156101000203166002900490600052602060002090601f016020900481019282601f106120dd57805160ff191683800117855561210b565b8280016001018555821561210b579182015b8281111561210a5782518255916020019190600101906120ef565b5b5090506121189190612224565b5090565b60606040519081016040528060608152602001600073ffffffffffffffffffffffffffffffffffffffff168152602001606081525090565b60a06040519081016040528060608152602001600073ffffffffffffffffffffffffffffffffffffffff1681526020016060815260200160008152602001606081525090565b828054828255906000526020600020908101928215612213579160200282015b828111156122125782518260006101000a81548173ffffffffffffffffffffffffffffffffffffffff021916908373ffffffffffffffffffffffffffffffffffffffff160217905550916020019190600101906121ba565b5b5090506122209190612249565b5090565b61224691905b8082111561224257600081600090555060010161222a565b5090565b90565b61228991905b8082111561228557600081816101000a81549073ffffffffffffffffffffffffffffffffffffffff02191690555060010161224f565b5090565b9056fea165627a7a72305820b36fd87a6dbcde776da5b08e4b6efe8f256c3a7ea1a3b91ed230a712c6a1ebe40029",
  "source": "// SPDX-License-Identifier: MIT\r\npragma solidity >=0.4.22 <0.8.0;\r\n\r\ncontract Hello {\r\n    //POJO for Admin\r\n    struct Admin {\r\n        string adminName;\r\n        string adminEmail;\r\n        address adminAddress;\r\n    }\r\n\r\n     //POJO for Donor\r\n    struct Donor{\r\n        string donorName;\r\n        address donorAddress;\r\n        string donorEmail;\r\n        uint participatedCount;\r\n        address[] participatedProjects;\r\n    }\r\n\r\n    // POJO for Benifactor\r\n    struct Benifactor{\r\n        string benifactorName;\r\n        address benifactorAddress;\r\n        string benifactorEmail;\r\n    }\r\n\r\n    //POJO for Charity Organisation\r\n    struct CharityProject{\r\n        uint projectId;\r\n        string projectName;\r\n        address createrAddress;\r\n        string projectDescription;\r\n        uint amountRequire;\r\n        bool isCompleted;\r\n        uint amountGot;\r\n        bool isApproved;\r\n    }\r\n\r\n    //Organiser / Admin (Who created this Smart Contract)\r\n    Admin public admin;\r\n    \r\n    mapping(address => Donor) public donors;\r\n    \r\n    mapping(address => Benifactor) public benifactors;\r\n\r\n    mapping(uint => CharityProject) public charityProjects;\r\n    \r\n    uint public totalProjects = 0;\r\n\r\n    //Constructor => Set's Admin only once at starting\r\n    constructor () public {\r\n        admin = Admin({\r\n            adminName: \"root\",\r\n            adminEmail: \"root.charitychain.in\",\r\n            adminAddress: msg.sender\r\n        });\r\n\r\n        totalProjects = 1;\r\n\r\n        CharityProject memory newProject = CharityProject({\r\n            projectId: totalProjects,\r\n            projectName : \"name\",\r\n            createrAddress : msg.sender,\r\n            projectDescription : \"desc\",\r\n            amountRequire : 0,\r\n            isCompleted: false,\r\n            amountGot: 0,\r\n            isApproved: false\r\n        });\r\n\r\n        charityProjects[totalProjects] = newProject;\r\n    }\r\n\r\n    event newBenifactorAdded (\r\n        string benifactorName,\r\n        address benifactorAddress,\r\n        string benifactorEmail\r\n    );\r\n\r\n    event newDonorAdded (\r\n        string donorName,\r\n        address donorAddress,\r\n        string donorEmail\r\n    );\r\n\r\n    event newProjectAdded (\r\n        uint projectId,\r\n        string projectName,\r\n        address createrAddress,\r\n        string projectDescription,\r\n        uint amountRequire,\r\n        bool isCompleted,\r\n        uint amountGot,\r\n        bool isApproved\r\n    );\r\n\r\n    event projectApproved (\r\n        uint projectId,\r\n        string projectName,\r\n        address createrAddress,\r\n        string projectDescription,\r\n        uint amountRequire,\r\n        bool isCompleted,\r\n        uint amountGot,\r\n        bool isApproved\r\n    );\r\n\r\n    event returnMessage(\r\n        bool status,\r\n        string message\r\n    );\r\n\r\n    function getAdmin() public view returns (address) {\r\n        return admin.adminAddress;\r\n    }\r\n\r\n    // Add new Benifactor\r\n    function addNewBenifactor(string memory name, string memory email) public {\r\n        if(keccak256(abi.encodePacked(benifactors[msg.sender].benifactorName)) \r\n        != keccak256(abi.encodePacked(\"\"))) {\r\n            emit returnMessage(false, \"User with this address already exist\");\r\n            return;\r\n        } \r\n\r\n        Benifactor memory newBenifactor = Benifactor({\r\n            benifactorName: name,\r\n            benifactorAddress: msg.sender,\r\n            benifactorEmail: email\r\n        });\r\n\r\n        benifactors[msg.sender] = newBenifactor;\r\n        emit newBenifactorAdded(name, msg.sender, email);\r\n    }  \r\n\r\n\r\n    //Add new Donor\r\n    function addNewDonor(string memory name, string memory email) public {\r\n\r\n        Donor memory newDonor = Donor({\r\n            donorName: name,\r\n            donorAddress: msg.sender,\r\n            donorEmail: email,\r\n            participatedCount: 0,\r\n            participatedProjects: new address[](0)\r\n        });\r\n\r\n        donors[msg.sender] = newDonor;\r\n        emit newDonorAdded(name, msg.sender, email);\r\n    } \r\n\r\n    \r\n    //Add new Project\r\n    function addNewProject(string memory name, string memory desc, uint amtReq) public {\r\n        totalProjects += 1;\r\n\r\n        CharityProject memory newProject = CharityProject({\r\n            projectId: totalProjects,\r\n            projectName : name,\r\n            createrAddress : msg.sender,\r\n            projectDescription : desc,\r\n            amountRequire : amtReq,\r\n            isCompleted: false,\r\n            amountGot: 0,\r\n            isApproved: false\r\n        });\r\n\r\n        charityProjects[totalProjects] = newProject;\r\n        emit newProjectAdded(totalProjects, name, msg.sender, desc, amtReq, false, 0, false);\r\n    }\r\n\r\n\r\n\r\n    function approvProject(uint id) public {\r\n\r\n        CharityProject memory newProject = CharityProject({\r\n            projectId: id,\r\n            projectName : charityProjects[id].projectName,\r\n            createrAddress : charityProjects[id].createrAddress,\r\n            projectDescription : charityProjects[id].projectDescription,\r\n            amountRequire : charityProjects[id].amountRequire,\r\n            isCompleted: charityProjects[id].isCompleted,\r\n            amountGot: charityProjects[id].amountGot,\r\n            isApproved: true\r\n        });\r\n\r\n        charityProjects[id] = newProject;\r\n\r\n        emit projectApproved(id, charityProjects[id].projectName, charityProjects[id].createrAddress,\r\n         charityProjects[id].projectDescription, charityProjects[id].amountRequire, charityProjects[id].isCompleted, charityProjects[id].amountGot, true);\r\n    }\r\n    \r\n\r\n}",
  "sourcePath": "D:\\College Project Work\\CharityChain - A Blockchain Based Charity Application\\Actual Code\\2\\contracts\\Hello.sol",
  "compiler": {
    "name": "solc",
    "version": "0.5.0+commit.1d4f565a.Emscripten.clang"
  },
  "schemaVersion": "3.0.23",
  "updatedAt": "2022-04-21T02:12:23.092Z",
  "networkType": "ethereum",
  "devdoc": {
    "methods": {}
  },
  "userdoc": {
    "methods": {}
  }
}