{
  "contractName": "Hello",
  "abi": [
    {
      "constant": true,
      "inputs": [
        {
          "name": "",
          "type": "uint256"
        }
      ],
      "name": "charityProjects",
      "outputs": [
        {
          "name": "projectId",
          "type": "uint256"
        },
        {
          "name": "projectName",
          "type": "string"
        },
        {
          "name": "createrAddress",
          "type": "address"
        },
        {
          "name": "projectDescription",
          "type": "string"
        },
        {
          "name": "amountRequire",
          "type": "uint256"
        },
        {
          "name": "isCompleted",
          "type": "bool"
        },
        {
          "name": "amountGot",
          "type": "uint256"
        },
        {
          "name": "isApproved",
          "type": "bool"
        }
      ],
      "payable": false,
      "stateMutability": "view",
      "type": "function"
    },
    {
      "constant": true,
      "inputs": [],
      "name": "totalProjects",
      "outputs": [
        {
          "name": "",
          "type": "uint256"
        }
      ],
      "payable": false,
      "stateMutability": "view",
      "type": "function"
    },
    {
      "constant": true,
      "inputs": [
        {
          "name": "",
          "type": "address"
        }
      ],
      "name": "donors",
      "outputs": [
        {
          "name": "donorName",
          "type": "string"
        },
        {
          "name": "donorAddress",
          "type": "address"
        },
        {
          "name": "donorEmail",
          "type": "string"
        },
        {
          "name": "participatedCount",
          "type": "uint256"
        }
      ],
      "payable": false,
      "stateMutability": "view",
      "type": "function"
    },
    {
      "constant": true,
      "inputs": [],
      "name": "admin",
      "outputs": [
        {
          "name": "adminName",
          "type": "string"
        },
        {
          "name": "adminEmail",
          "type": "string"
        },
        {
          "name": "adminAddress",
          "type": "address"
        }
      ],
      "payable": false,
      "stateMutability": "view",
      "type": "function"
    },
    {
      "constant": true,
      "inputs": [
        {
          "name": "",
          "type": "address"
        }
      ],
      "name": "benifactors",
      "outputs": [
        {
          "name": "benifactorName",
          "type": "string"
        },
        {
          "name": "benifactorAddress",
          "type": "address"
        },
        {
          "name": "benifactorEmail",
          "type": "string"
        }
      ],
      "payable": false,
      "stateMutability": "view",
      "type": "function"
    },
    {
      "inputs": [],
      "payable": false,
      "stateMutability": "nonpayable",
      "type": "constructor"
    },
    {
      "anonymous": false,
      "inputs": [
        {
          "indexed": false,
          "name": "benifactorName",
          "type": "string"
        },
        {
          "indexed": false,
          "name": "benifactorAddress",
          "type": "address"
        },
        {
          "indexed": false,
          "name": "benifactorEmail",
          "type": "string"
        }
      ],
      "name": "newBenifactorAdded",
      "type": "event"
    },
    {
      "anonymous": false,
      "inputs": [
        {
          "indexed": false,
          "name": "donorName",
          "type": "string"
        },
        {
          "indexed": false,
          "name": "donorAddress",
          "type": "address"
        },
        {
          "indexed": false,
          "name": "donorEmail",
          "type": "string"
        }
      ],
      "name": "newDonorAdded",
      "type": "event"
    },
    {
      "anonymous": false,
      "inputs": [
        {
          "indexed": false,
          "name": "projectId",
          "type": "uint256"
        },
        {
          "indexed": false,
          "name": "projectName",
          "type": "string"
        },
        {
          "indexed": false,
          "name": "createrAddress",
          "type": "address"
        },
        {
          "indexed": false,
          "name": "projectDescription",
          "type": "string"
        },
        {
          "indexed": false,
          "name": "amountRequire",
          "type": "uint256"
        },
        {
          "indexed": false,
          "name": "isCompleted",
          "type": "bool"
        },
        {
          "indexed": false,
          "name": "amountGot",
          "type": "uint256"
        },
        {
          "indexed": false,
          "name": "isApproved",
          "type": "bool"
        }
      ],
      "name": "newProjectAdded",
      "type": "event"
    },
    {
      "anonymous": false,
      "inputs": [
        {
          "indexed": false,
          "name": "status",
          "type": "bool"
        },
        {
          "indexed": false,
          "name": "message",
          "type": "string"
        }
      ],
      "name": "returnMessage",
      "type": "event"
    },
    {
      "constant": true,
      "inputs": [],
      "name": "getAdmin",
      "outputs": [
        {
          "name": "",
          "type": "address"
        }
      ],
      "payable": false,
      "stateMutability": "view",
      "type": "function"
    },
    {
      "constant": false,
      "inputs": [
        {
          "name": "name",
          "type": "string"
        },
        {
          "name": "email",
          "type": "string"
        }
      ],
      "name": "addNewBenifactor",
      "outputs": [],
      "payable": false,
      "stateMutability": "nonpayable",
      "type": "function"
    },
    {
      "constant": false,
      "inputs": [
        {
          "name": "name",
          "type": "string"
        },
        {
          "name": "email",
          "type": "string"
        }
      ],
      "name": "addNewDonor",
      "outputs": [],
      "payable": false,
      "stateMutability": "nonpayable",
      "type": "function"
    },
    {
      "constant": false,
      "inputs": [
        {
          "name": "name",
          "type": "string"
        },
        {
          "name": "desc",
          "type": "string"
        },
        {
          "name": "amtReq",
          "type": "uint256"
        }
      ],
      "name": "addNewProject",
      "outputs": [],
      "payable": false,
      "stateMutability": "nonpayable",
      "type": "function"
    }
  ],
  "bytecode": "0x608060405260006006553480156200001657600080fd5b506060604051908101604052806040805190810160405280600481526020017f726f6f740000000000000000000000000000000000000000000000000000000081525081526020016040805190810160405280601481526020017f726f6f742e63686172697479636861696e2e696e00000000000000000000000081525081526020013373ffffffffffffffffffffffffffffffffffffffff16815250600080820151816000019080519060200190620000d29291906200014a565b506020820151816001019080519060200190620000f19291906200014a565b5060408201518160020160006101000a81548173ffffffffffffffffffffffffffffffffffffffff021916908373ffffffffffffffffffffffffffffffffffffffff1602179055509050506000600681905550620001f9565b828054600181600116156101000203166002900490600052602060002090601f016020900481019282601f106200018d57805160ff1916838001178555620001be565b82800160010185558215620001be579182015b82811115620001bd578251825591602001919060010190620001a0565b5b509050620001cd9190620001d1565b5090565b620001f691905b80821115620001f2576000816000905550600101620001d8565b5090565b90565b611ce080620002096000396000f3fe608060405260043610610099576000357c0100000000000000000000000000000000000000000000000000000000900463ffffffff1680631bf71d4b1461009e5780631fd421f4146102075780636e9960c314610385578063992f317e146103dc5780639c361e4e1461053b578063c9b64ced14610566578063ca0cdea8146106c5578063f851a44014610835578063fba6f21d14610964575b600080fd5b3480156100aa57600080fd5b50610205600480360360608110156100c157600080fd5b81019080803590602001906401000000008111156100de57600080fd5b8201836020820111156100f057600080fd5b8035906020019184600183028401116401000000008311171561011257600080fd5b91908080601f016020809104026020016040519081016040528093929190818152602001838380828437600081840152601f19601f8201169050808301925050505050505091929192908035906020019064010000000081111561017557600080fd5b82018360208201111561018757600080fd5b803590602001918460018302840111640100000000831117156101a957600080fd5b91908080601f016020809104026020016040519081016040528093929190818152602001838380828437600081840152601f19601f82011690508083019250505050505050919291929080359060200190929190505050610acd565b005b34801561021357600080fd5b506102406004803603602081101561022a57600080fd5b8101908080359060200190929190505050610db1565b60405180898152602001806020018873ffffffffffffffffffffffffffffffffffffffff1673ffffffffffffffffffffffffffffffffffffffff16815260200180602001878152602001861515151581526020018581526020018415151515815260200183810383528a818151815260200191508051906020019080838360005b838110156102dc5780820151818401526020810190506102c1565b50505050905090810190601f1680156103095780820380516001836020036101000a031916815260200191505b50838103825288818151815260200191508051906020019080838360005b83811015610342578082015181840152602081019050610327565b50505050905090810190601f16801561036f5780820380516001836020036101000a031916815260200191505b509a505050505050505050505060405180910390f35b34801561039157600080fd5b5061039a610f63565b604051808273ffffffffffffffffffffffffffffffffffffffff1673ffffffffffffffffffffffffffffffffffffffff16815260200191505060405180910390f35b3480156103e857600080fd5b50610539600480360360408110156103ff57600080fd5b810190808035906020019064010000000081111561041c57600080fd5b82018360208201111561042e57600080fd5b8035906020019184600183028401116401000000008311171561045057600080fd5b91908080601f016020809104026020016040519081016040528093929190818152602001838380828437600081840152601f19601f820116905080830192505050505050509192919290803590602001906401000000008111156104b357600080fd5b8201836020820111156104c557600080fd5b803590602001918460018302840111640100000000831117156104e757600080fd5b91908080601f016020809104026020016040519081016040528093929190818152602001838380828437600081840152601f19601f820116905080830192505050505050509192919290505050610f8f565b005b34801561054757600080fd5b50610550611356565b6040518082815260200191505060405180910390f35b34801561057257600080fd5b506106c36004803603604081101561058957600080fd5b81019080803590602001906401000000008111156105a657600080fd5b8201836020820111156105b857600080fd5b803590602001918460018302840111640100000000831117156105da57600080fd5b91908080601f016020809104026020016040519081016040528093929190818152602001838380828437600081840152601f19601f8201169050808301925050505050505091929192908035906020019064010000000081111561063d57600080fd5b82018360208201111561064f57600080fd5b8035906020019184600183028401116401000000008311171561067157600080fd5b91908080601f016020809104026020016040519081016040528093929190818152602001838380828437600081840152601f19601f82011690508083019250505050505050919291929050505061135c565b005b3480156106d157600080fd5b50610714600480360360208110156106e857600080fd5b81019080803573ffffffffffffffffffffffffffffffffffffffff169060200190929190505050611602565b60405180806020018573ffffffffffffffffffffffffffffffffffffffff1673ffffffffffffffffffffffffffffffffffffffff16815260200180602001848152602001838103835287818151815260200191508051906020019080838360005b83811015610790578082015181840152602081019050610775565b50505050905090810190601f1680156107bd5780820380516001836020036101000a031916815260200191505b50838103825285818151815260200191508051906020019080838360005b838110156107f65780820151818401526020810190506107db565b50505050905090810190601f1680156108235780820380516001836020036101000a031916815260200191505b50965050505050505060405180910390f35b34801561084157600080fd5b5061084a611782565b6040518080602001806020018473ffffffffffffffffffffffffffffffffffffffff1673ffffffffffffffffffffffffffffffffffffffff168152602001838103835286818151815260200191508051906020019080838360005b838110156108c05780820151818401526020810190506108a5565b50505050905090810190601f1680156108ed5780820380516001836020036101000a031916815260200191505b50838103825285818151815260200191508051906020019080838360005b8381101561092657808201518184015260208101905061090b565b50505050905090810190601f1680156109535780820380516001836020036101000a031916815260200191505b509550505050505060405180910390f35b34801561097057600080fd5b506109b36004803603602081101561098757600080fd5b81019080803573ffffffffffffffffffffffffffffffffffffffff1690602001909291905050506118ea565b60405180806020018473ffffffffffffffffffffffffffffffffffffffff1673ffffffffffffffffffffffffffffffffffffffff16815260200180602001838103835286818151815260200191508051906020019080838360005b83811015610a29578082015181840152602081019050610a0e565b50505050905090810190601f168015610a565780820380516001836020036101000a031916815260200191505b50838103825284818151815260200191508051906020019080838360005b83811015610a8f578082015181840152602081019050610a74565b50505050905090810190601f168015610abc5780820380516001836020036101000a031916815260200191505b509550505050505060405180910390f35b6001600660008282540192505081905550610ae6611a64565b6101006040519081016040528060065481526020018581526020013373ffffffffffffffffffffffffffffffffffffffff1681526020018481526020018381526020016000151581526020016000815260200160001515815250905080600560006006548152602001908152602001600020600082015181600001556020820151816001019080519060200190610b7e929190611ac4565b5060408201518160020160006101000a81548173ffffffffffffffffffffffffffffffffffffffff021916908373ffffffffffffffffffffffffffffffffffffffff1602179055506060820151816003019080519060200190610be2929190611ac4565b506080820151816004015560a08201518160050160006101000a81548160ff02191690831515021790555060c0820151816006015560e08201518160070160006101000a81548160ff0219169083151502179055509050507f085782110086c6400b2481bc31b3c34e084e3f917a70c7d0b4575b833bcba80d60065485338686600080600060405180898152602001806020018873ffffffffffffffffffffffffffffffffffffffff1673ffffffffffffffffffffffffffffffffffffffff16815260200180602001878152602001861515151581526020018581526020018415151515815260200183810383528a818151815260200191508051906020019080838360005b83811015610d03578082015181840152602081019050610ce8565b50505050905090810190601f168015610d305780820380516001836020036101000a031916815260200191505b50838103825288818151815260200191508051906020019080838360005b83811015610d69578082015181840152602081019050610d4e565b50505050905090810190601f168015610d965780820380516001836020036101000a031916815260200191505b509a505050505050505050505060405180910390a150505050565b6005602052806000526040600020600091509050806000015490806001018054600181600116156101000203166002900480601f016020809104026020016040519081016040528092919081815260200182805460018160011615610100020316600290048015610e635780601f10610e3857610100808354040283529160200191610e63565b820191906000526020600020905b815481529060010190602001808311610e4657829003601f168201915b5050505050908060020160009054906101000a900473ffffffffffffffffffffffffffffffffffffffff1690806003018054600181600116156101000203166002900480601f016020809104026020016040519081016040528092919081815260200182805460018160011615610100020316600290048015610f275780601f10610efc57610100808354040283529160200191610f27565b820191906000526020600020905b815481529060010190602001808311610f0a57829003601f168201915b5050505050908060040154908060050160009054906101000a900460ff16908060060154908060070160009054906101000a900460ff16905088565b60008060020160009054906101000a900473ffffffffffffffffffffffffffffffffffffffff16905090565b60405160200180600001905060405160208183030381529060405280519060200120600460003373ffffffffffffffffffffffffffffffffffffffff1673ffffffffffffffffffffffffffffffffffffffff16815260200190815260200160002060000160405160200180828054600181600116156101000203166002900480156110515780601f1061102f576101008083540402835291820191611051565b820191906000526020600020905b81548152906001019060200180831161103d575b505091505060405160208183030381529060405280519060200120141515611113577fb245b859ee5c338a136b1962bcac64d1970a5b2bd5e70bd853e35190ef7c24aa6000604051808215151515815260200180602001828103825260248152602001807f5573657220776974682074686973206164647265737320616c7265616479206581526020017f78697374000000000000000000000000000000000000000000000000000000008152506040019250505060405180910390a1611352565b61111b611b44565b6060604051908101604052808481526020013373ffffffffffffffffffffffffffffffffffffffff16815260200183815250905080600460003373ffffffffffffffffffffffffffffffffffffffff1673ffffffffffffffffffffffffffffffffffffffff16815260200190815260200160002060008201518160000190805190602001906111ab929190611ac4565b5060208201518160010160006101000a81548173ffffffffffffffffffffffffffffffffffffffff021916908373ffffffffffffffffffffffffffffffffffffffff160217905550604082015181600201908051906020019061120f929190611ac4565b509050507f12cb44b0910757f01bb81b6c733eac1c8f7ccf741c357f3cf4892defa4c39d5383338460405180806020018473ffffffffffffffffffffffffffffffffffffffff1673ffffffffffffffffffffffffffffffffffffffff16815260200180602001838103835286818151815260200191508051906020019080838360005b838110156112ad578082015181840152602081019050611292565b50505050905090810190601f1680156112da5780820380516001836020036101000a031916815260200191505b50838103825284818151815260200191508051906020019080838360005b838110156113135780820151818401526020810190506112f8565b50505050905090810190601f1680156113405780820380516001836020036101000a031916815260200191505b509550505050505060405180910390a1505b5050565b60065481565b611364611b7c565b60a0604051908101604052808481526020013373ffffffffffffffffffffffffffffffffffffffff1681526020018381526020016000815260200160006040519080825280602002602001820160405280156113cf5781602001602082028038833980820191505090505b50815250905080600360003373ffffffffffffffffffffffffffffffffffffffff1673ffffffffffffffffffffffffffffffffffffffff1681526020019081526020016000206000820151816000019080519060200190611431929190611ac4565b5060208201518160010160006101000a81548173ffffffffffffffffffffffffffffffffffffffff021916908373ffffffffffffffffffffffffffffffffffffffff1602179055506040820151816002019080519060200190611495929190611ac4565b506060820151816003015560808201518160040190805190602001906114bc929190611bc2565b509050507fe57e8ec5f7c0252d278f1d91e7ebf4e4ad1b5572e0006b54909e44417decdd5183338460405180806020018473ffffffffffffffffffffffffffffffffffffffff1673ffffffffffffffffffffffffffffffffffffffff16815260200180602001838103835286818151815260200191508051906020019080838360005b8381101561155a57808201518184015260208101905061153f565b50505050905090810190601f1680156115875780820380516001836020036101000a031916815260200191505b50838103825284818151815260200191508051906020019080838360005b838110156115c05780820151818401526020810190506115a5565b50505050905090810190601f1680156115ed5780820380516001836020036101000a031916815260200191505b509550505050505060405180910390a1505050565b6003602052806000526040600020600091509050806000018054600181600116156101000203166002900480601f0160208091040260200160405190810160405280929190818152602001828054600181600116156101000203166002900480156116ae5780601f10611683576101008083540402835291602001916116ae565b820191906000526020600020905b81548152906001019060200180831161169157829003601f168201915b5050505050908060010160009054906101000a900473ffffffffffffffffffffffffffffffffffffffff1690806002018054600181600116156101000203166002900480601f0160208091040260200160405190810160405280929190818152602001828054600181600116156101000203166002900480156117725780601f1061174757610100808354040283529160200191611772565b820191906000526020600020905b81548152906001019060200180831161175557829003601f168201915b5050505050908060030154905084565b6000806000018054600181600116156101000203166002900480601f01602080910402602001604051908101604052809291908181526020018280546001816001161561010002031660029004801561181c5780601f106117f15761010080835404028352916020019161181c565b820191906000526020600020905b8154815290600101906020018083116117ff57829003601f168201915b505050505090806001018054600181600116156101000203166002900480601f0160208091040260200160405190810160405280929190818152602001828054600181600116156101000203166002900480156118ba5780601f1061188f576101008083540402835291602001916118ba565b820191906000526020600020905b81548152906001019060200180831161189d57829003601f168201915b5050505050908060020160009054906101000a900473ffffffffffffffffffffffffffffffffffffffff16905083565b6004602052806000526040600020600091509050806000018054600181600116156101000203166002900480601f0160208091040260200160405190810160405280929190818152602001828054600181600116156101000203166002900480156119965780601f1061196b57610100808354040283529160200191611996565b820191906000526020600020905b81548152906001019060200180831161197957829003601f168201915b5050505050908060010160009054906101000a900473ffffffffffffffffffffffffffffffffffffffff1690806002018054600181600116156101000203166002900480601f016020809104026020016040519081016040528092919081815260200182805460018160011615610100020316600290048015611a5a5780601f10611a2f57610100808354040283529160200191611a5a565b820191906000526020600020905b815481529060010190602001808311611a3d57829003601f168201915b5050505050905083565b610100604051908101604052806000815260200160608152602001600073ffffffffffffffffffffffffffffffffffffffff1681526020016060815260200160008152602001600015158152602001600081526020016000151581525090565b828054600181600116156101000203166002900490600052602060002090601f016020900481019282601f10611b0557805160ff1916838001178555611b33565b82800160010185558215611b33579182015b82811115611b32578251825591602001919060010190611b17565b5b509050611b409190611c4c565b5090565b60606040519081016040528060608152602001600073ffffffffffffffffffffffffffffffffffffffff168152602001606081525090565b60a06040519081016040528060608152602001600073ffffffffffffffffffffffffffffffffffffffff1681526020016060815260200160008152602001606081525090565b828054828255906000526020600020908101928215611c3b579160200282015b82811115611c3a5782518260006101000a81548173ffffffffffffffffffffffffffffffffffffffff021916908373ffffffffffffffffffffffffffffffffffffffff16021790555091602001919060010190611be2565b5b509050611c489190611c71565b5090565b611c6e91905b80821115611c6a576000816000905550600101611c52565b5090565b90565b611cb191905b80821115611cad57600081816101000a81549073ffffffffffffffffffffffffffffffffffffffff021916905550600101611c77565b5090565b9056fea165627a7a72305820a98d68344dfa10ceea9dbe602362782032086a4b8d3d4fa1c894bc5a1e65e8640029",
  "source": "// SPDX-License-Identifier: MIT\r\npragma solidity >=0.4.22 <0.8.0;\r\n\r\ncontract Hello {\r\n    //POJO for Admin\r\n    struct Admin {\r\n        string adminName;\r\n        string adminEmail;\r\n        address adminAddress;\r\n    }\r\n\r\n     //POJO for Donor\r\n    struct Donor{\r\n        string donorName;\r\n        address donorAddress;\r\n        string donorEmail;\r\n        uint participatedCount;\r\n        address[] participatedProjects;\r\n    }\r\n\r\n    // POJO for Benifactor\r\n    struct Benifactor{\r\n        string benifactorName;\r\n        address benifactorAddress;\r\n        string benifactorEmail;\r\n    }\r\n\r\n    //POJO for Charity Organisation\r\n    struct CharityProject{\r\n        uint projectId;\r\n        string projectName;\r\n        address createrAddress;\r\n        string projectDescription;\r\n        uint amountRequire;\r\n        bool isCompleted;\r\n        uint amountGot;\r\n        bool isApproved;\r\n    }\r\n\r\n    //Organiser / Admin (Who created this Smart Contract)\r\n    Admin public admin;\r\n    \r\n    mapping(address => Donor) public donors;\r\n    \r\n    mapping(address => Benifactor) public benifactors;\r\n\r\n    mapping(uint => CharityProject) public charityProjects;\r\n    \r\n    uint public totalProjects = 0;\r\n\r\n    //Constructor => Set's Admin only once at starting\r\n    constructor () public {\r\n        admin = Admin({\r\n            adminName: \"root\",\r\n            adminEmail: \"root.charitychain.in\",\r\n            adminAddress: msg.sender\r\n        });\r\n\r\n        totalProjects = 0;\r\n    }\r\n\r\n    event newBenifactorAdded (\r\n        string benifactorName,\r\n        address benifactorAddress,\r\n        string benifactorEmail\r\n    );\r\n\r\n    event newDonorAdded (\r\n        string donorName,\r\n        address donorAddress,\r\n        string donorEmail\r\n    );\r\n\r\n    event newProjectAdded (\r\n        uint projectId,\r\n        string projectName,\r\n        address createrAddress,\r\n        string projectDescription,\r\n        uint amountRequire,\r\n        bool isCompleted,\r\n        uint amountGot,\r\n        bool isApproved\r\n    );\r\n\r\n    event returnMessage(\r\n        bool status,\r\n        string message\r\n    );\r\n\r\n    function getAdmin() public view returns (address) {\r\n        return admin.adminAddress;\r\n    }\r\n\r\n    // Add new Benifactor\r\n    function addNewBenifactor(string memory name, string memory email) public {\r\n        if(keccak256(abi.encodePacked(benifactors[msg.sender].benifactorName)) \r\n        != keccak256(abi.encodePacked(\"\"))) {\r\n            emit returnMessage(false, \"User with this address already exist\");\r\n            return;\r\n        } \r\n\r\n        Benifactor memory newBenifactor = Benifactor({\r\n            benifactorName: name,\r\n            benifactorAddress: msg.sender,\r\n            benifactorEmail: email\r\n        });\r\n\r\n        benifactors[msg.sender] = newBenifactor;\r\n        emit newBenifactorAdded(name, msg.sender, email);\r\n    }  \r\n\r\n\r\n    //Add new Donor\r\n    function addNewDonor(string memory name, string memory email) public {\r\n\r\n        Donor memory newDonor = Donor({\r\n            donorName: name,\r\n            donorAddress: msg.sender,\r\n            donorEmail: email,\r\n            participatedCount: 0,\r\n            participatedProjects: new address[](0)\r\n        });\r\n\r\n        donors[msg.sender] = newDonor;\r\n        emit newDonorAdded(name, msg.sender, email);\r\n    } \r\n\r\n    \r\n    //Add new Project\r\n    function addNewProject(string memory name, string memory desc, uint amtReq) public {\r\n        totalProjects += 1;\r\n\r\n        CharityProject memory newProject = CharityProject({\r\n            projectId: totalProjects,\r\n            projectName : name,\r\n            createrAddress : msg.sender,\r\n            projectDescription : desc,\r\n            amountRequire : amtReq,\r\n            isCompleted: false,\r\n            amountGot: 0,\r\n            isApproved: false\r\n        });\r\n\r\n        charityProjects[totalProjects] = newProject;\r\n        emit newProjectAdded(totalProjects, name, msg.sender, desc, amtReq, false, 0, false);\r\n    }\r\n\r\n    \r\n\r\n}",
  "sourcePath": "D:\\College Project Work\\CharityChain - A Blockchain Based Charity Application\\Actual Code\\2\\contracts\\Hello.sol",
  "compiler": {
    "name": "solc",
    "version": "0.5.0+commit.1d4f565a.Emscripten.clang"
  },
  "schemaVersion": "3.0.23",
  "updatedAt": "2022-04-17T01:41:14.970Z",
  "networkType": "ethereum",
  "devdoc": {
    "methods": {}
  },
  "userdoc": {
    "methods": {}
  }
}