{
  "contractName": "Hello",
  "abi": [
    {
      "constant": true,
      "inputs": [
        {
          "name": "",
          "type": "uint256"
        }
      ],
      "name": "charityProjects",
      "outputs": [
        {
          "name": "projectName",
          "type": "string"
        },
        {
          "name": "createrAddress",
          "type": "address"
        },
        {
          "name": "projectDescription",
          "type": "string"
        },
        {
          "name": "amountRequire",
          "type": "uint256"
        },
        {
          "name": "isCompleted",
          "type": "bool"
        },
        {
          "name": "amountGot",
          "type": "uint256"
        },
        {
          "name": "isApproved",
          "type": "bool"
        }
      ],
      "payable": false,
      "stateMutability": "view",
      "type": "function"
    },
    {
      "constant": true,
      "inputs": [],
      "name": "totalProjects",
      "outputs": [
        {
          "name": "",
          "type": "uint256"
        }
      ],
      "payable": false,
      "stateMutability": "view",
      "type": "function"
    },
    {
      "constant": true,
      "inputs": [
        {
          "name": "",
          "type": "address"
        }
      ],
      "name": "donors",
      "outputs": [
        {
          "name": "donorName",
          "type": "string"
        },
        {
          "name": "donorAddress",
          "type": "address"
        },
        {
          "name": "donorEmail",
          "type": "string"
        },
        {
          "name": "participatedCount",
          "type": "uint256"
        }
      ],
      "payable": false,
      "stateMutability": "view",
      "type": "function"
    },
    {
      "constant": true,
      "inputs": [
        {
          "name": "",
          "type": "address"
        }
      ],
      "name": "benifactors",
      "outputs": [
        {
          "name": "benifactorName",
          "type": "string"
        },
        {
          "name": "benifactorAddress",
          "type": "address"
        },
        {
          "name": "benifactorEmail",
          "type": "string"
        }
      ],
      "payable": false,
      "stateMutability": "view",
      "type": "function"
    },
    {
      "inputs": [],
      "payable": false,
      "stateMutability": "nonpayable",
      "type": "constructor"
    },
    {
      "anonymous": false,
      "inputs": [
        {
          "indexed": false,
          "name": "benifactorName",
          "type": "string"
        },
        {
          "indexed": false,
          "name": "benifactorAddress",
          "type": "address"
        },
        {
          "indexed": false,
          "name": "benifactorEmail",
          "type": "string"
        }
      ],
      "name": "newBenifactorAdded",
      "type": "event"
    },
    {
      "anonymous": false,
      "inputs": [
        {
          "indexed": false,
          "name": "donorName",
          "type": "string"
        },
        {
          "indexed": false,
          "name": "donorAddress",
          "type": "address"
        },
        {
          "indexed": false,
          "name": "donorEmail",
          "type": "string"
        }
      ],
      "name": "newDonorAdded",
      "type": "event"
    },
    {
      "anonymous": false,
      "inputs": [
        {
          "indexed": false,
          "name": "projectName",
          "type": "string"
        },
        {
          "indexed": false,
          "name": "createrAddress",
          "type": "address"
        },
        {
          "indexed": false,
          "name": "projectDescription",
          "type": "string"
        },
        {
          "indexed": false,
          "name": "amountRequire",
          "type": "uint256"
        },
        {
          "indexed": false,
          "name": "isCompleted",
          "type": "bool"
        },
        {
          "indexed": false,
          "name": "amountGot",
          "type": "uint256"
        },
        {
          "indexed": false,
          "name": "isApproved",
          "type": "bool"
        }
      ],
      "name": "newProjectAdded",
      "type": "event"
    },
    {
      "constant": false,
      "inputs": [
        {
          "name": "name",
          "type": "string"
        },
        {
          "name": "email",
          "type": "string"
        }
      ],
      "name": "addNewBenifactor",
      "outputs": [],
      "payable": false,
      "stateMutability": "nonpayable",
      "type": "function"
    },
    {
      "constant": false,
      "inputs": [
        {
          "name": "name",
          "type": "string"
        },
        {
          "name": "email",
          "type": "string"
        }
      ],
      "name": "addNewDonor",
      "outputs": [],
      "payable": false,
      "stateMutability": "nonpayable",
      "type": "function"
    },
    {
      "constant": false,
      "inputs": [
        {
          "name": "name",
          "type": "string"
        },
        {
          "name": "desc",
          "type": "string"
        },
        {
          "name": "amtReq",
          "type": "uint256"
        }
      ],
      "name": "addNewProject",
      "outputs": [],
      "payable": false,
      "stateMutability": "nonpayable",
      "type": "function"
    },
    {
      "constant": true,
      "inputs": [
        {
          "name": "ind",
          "type": "uint256"
        }
      ],
      "name": "getDonorProjects",
      "outputs": [
        {
          "name": "",
          "type": "address"
        }
      ],
      "payable": false,
      "stateMutability": "view",
      "type": "function"
    }
  ],
  "bytecode": "0x60806040523480156200001157600080fd5b506060604051908101604052806040805190810160405280600481526020017f726f6f740000000000000000000000000000000000000000000000000000000081525081526020016040805190810160405280601481526020017f726f6f742e63686172697479636861696e2e696e00000000000000000000000081525081526020013373ffffffffffffffffffffffffffffffffffffffff16815250600080820151816000019080519060200190620000cd92919062000145565b506020820151816001019080519060200190620000ec92919062000145565b5060408201518160020160006101000a81548173ffffffffffffffffffffffffffffffffffffffff021916908373ffffffffffffffffffffffffffffffffffffffff1602179055509050506000600681905550620001f4565b828054600181600116156101000203166002900490600052602060002090601f016020900481019282601f106200018857805160ff1916838001178555620001b9565b82800160010185558215620001b9579182015b82811115620001b85782518255916020019190600101906200019b565b5b509050620001c89190620001cc565b5090565b620001f191905b80821115620001ed576000816000905550600101620001d3565b5090565b90565b61190280620002046000396000f3fe60806040526004361061008e576000357c0100000000000000000000000000000000000000000000000000000000900463ffffffff1680631bf71d4b146100935780631fd421f4146101fc57806387ff215914610373578063992f317e146103ee5780639c361e4e1461054d578063c9b64ced14610578578063ca0cdea8146106d7578063fba6f21d14610847575b600080fd5b34801561009f57600080fd5b506101fa600480360360608110156100b657600080fd5b81019080803590602001906401000000008111156100d357600080fd5b8201836020820111156100e557600080fd5b8035906020019184600183028401116401000000008311171561010757600080fd5b91908080601f016020809104026020016040519081016040528093929190818152602001838380828437600081840152601f19601f8201169050808301925050505050505091929192908035906020019064010000000081111561016a57600080fd5b82018360208201111561017c57600080fd5b8035906020019184600183028401116401000000008311171561019e57600080fd5b91908080601f016020809104026020016040519081016040528093929190818152602001838380828437600081840152601f19601f820116905080830192505050505050509192919290803590602001909291905050506109b0565b005b34801561020857600080fd5b506102356004803603602081101561021f57600080fd5b8101908080359060200190929190505050610c77565b60405180806020018873ffffffffffffffffffffffffffffffffffffffff1673ffffffffffffffffffffffffffffffffffffffff16815260200180602001878152602001861515151581526020018581526020018415151515815260200183810383528a818151815260200191508051906020019080838360005b838110156102cb5780820151818401526020810190506102b0565b50505050905090810190601f1680156102f85780820380516001836020036101000a031916815260200191505b50838103825288818151815260200191508051906020019080838360005b83811015610331578082015181840152602081019050610316565b50505050905090810190601f16801561035e5780820380516001836020036101000a031916815260200191505b50995050505050505050505060405180910390f35b34801561037f57600080fd5b506103ac6004803603602081101561039657600080fd5b8101908080359060200190929190505050610e23565b604051808273ffffffffffffffffffffffffffffffffffffffff1673ffffffffffffffffffffffffffffffffffffffff16815260200191505060405180910390f35b3480156103fa57600080fd5b5061054b6004803603604081101561041157600080fd5b810190808035906020019064010000000081111561042e57600080fd5b82018360208201111561044057600080fd5b8035906020019184600183028401116401000000008311171561046257600080fd5b91908080601f016020809104026020016040519081016040528093929190818152602001838380828437600081840152601f19601f820116905080830192505050505050509192919290803590602001906401000000008111156104c557600080fd5b8201836020820111156104d757600080fd5b803590602001918460018302840111640100000000831117156104f957600080fd5b91908080601f016020809104026020016040519081016040528093929190818152602001838380828437600081840152601f19601f820116905080830192505050505050509192919290505050610ea6565b005b34801561055957600080fd5b506105626110e8565b6040518082815260200191505060405180910390f35b34801561058457600080fd5b506106d56004803603604081101561059b57600080fd5b81019080803590602001906401000000008111156105b857600080fd5b8201836020820111156105ca57600080fd5b803590602001918460018302840111640100000000831117156105ec57600080fd5b91908080601f016020809104026020016040519081016040528093929190818152602001838380828437600081840152601f19601f8201169050808301925050505050505091929192908035906020019064010000000081111561064f57600080fd5b82018360208201111561066157600080fd5b8035906020019184600183028401116401000000008311171561068357600080fd5b91908080601f016020809104026020016040519081016040528093929190818152602001838380828437600081840152601f19601f8201169050808301925050505050505091929192905050506110ee565b005b3480156106e357600080fd5b50610726600480360360208110156106fa57600080fd5b81019080803573ffffffffffffffffffffffffffffffffffffffff169060200190929190505050611394565b60405180806020018573ffffffffffffffffffffffffffffffffffffffff1673ffffffffffffffffffffffffffffffffffffffff16815260200180602001848152602001838103835287818151815260200191508051906020019080838360005b838110156107a2578082015181840152602081019050610787565b50505050905090810190601f1680156107cf5780820380516001836020036101000a031916815260200191505b50838103825285818151815260200191508051906020019080838360005b838110156108085780820151818401526020810190506107ed565b50505050905090810190601f1680156108355780820380516001836020036101000a031916815260200191505b50965050505050505060405180910390f35b34801561085357600080fd5b506108966004803603602081101561086a57600080fd5b81019080803573ffffffffffffffffffffffffffffffffffffffff169060200190929190505050611514565b60405180806020018473ffffffffffffffffffffffffffffffffffffffff1673ffffffffffffffffffffffffffffffffffffffff16815260200180602001838103835286818151815260200191508051906020019080838360005b8381101561090c5780820151818401526020810190506108f1565b50505050905090810190601f1680156109395780820380516001836020036101000a031916815260200191505b50838103825284818151815260200191508051906020019080838360005b83811015610972578082015181840152602081019050610957565b50505050905090810190601f16801561099f5780820380516001836020036101000a031916815260200191505b509550505050505060405180910390f35b6109b861168e565b60e0604051908101604052808581526020013373ffffffffffffffffffffffffffffffffffffffff168152602001848152602001838152602001600015158152602001600081526020016000151581525090506001600660008282540192505081905550806005600060065481526020019081526020016000206000820151816000019080519060200190610a4e9291906116e6565b5060208201518160010160006101000a81548173ffffffffffffffffffffffffffffffffffffffff021916908373ffffffffffffffffffffffffffffffffffffffff1602179055506040820151816002019080519060200190610ab29291906116e6565b506060820151816003015560808201518160040160006101000a81548160ff02191690831515021790555060a0820151816005015560c08201518160060160006101000a81548160ff0219169083151502179055509050507fac9ee41c0a3c2a60ba524d75d58dff1c4f50582519a303cabfb64e9e2255eab884338585600080600060405180806020018873ffffffffffffffffffffffffffffffffffffffff1673ffffffffffffffffffffffffffffffffffffffff16815260200180602001878152602001861515151581526020018581526020018415151515815260200183810383528a818151815260200191508051906020019080838360005b83811015610bca578082015181840152602081019050610baf565b50505050905090810190601f168015610bf75780820380516001836020036101000a031916815260200191505b50838103825288818151815260200191508051906020019080838360005b83811015610c30578082015181840152602081019050610c15565b50505050905090810190601f168015610c5d5780820380516001836020036101000a031916815260200191505b50995050505050505050505060405180910390a150505050565b6005602052806000526040600020600091509050806000018054600181600116156101000203166002900480601f016020809104026020016040519081016040528092919081815260200182805460018160011615610100020316600290048015610d235780601f10610cf857610100808354040283529160200191610d23565b820191906000526020600020905b815481529060010190602001808311610d0657829003601f168201915b5050505050908060010160009054906101000a900473ffffffffffffffffffffffffffffffffffffffff1690806002018054600181600116156101000203166002900480601f016020809104026020016040519081016040528092919081815260200182805460018160011615610100020316600290048015610de75780601f10610dbc57610100808354040283529160200191610de7565b820191906000526020600020905b815481529060010190602001808311610dca57829003601f168201915b5050505050908060030154908060040160009054906101000a900460ff16908060050154908060060160009054906101000a900460ff16905087565b6000600360003373ffffffffffffffffffffffffffffffffffffffff1673ffffffffffffffffffffffffffffffffffffffff16815260200190815260200160002060040182815481101515610e7457fe5b9060005260206000200160009054906101000a900473ffffffffffffffffffffffffffffffffffffffff169050919050565b610eae611766565b6060604051908101604052808481526020013373ffffffffffffffffffffffffffffffffffffffff16815260200183815250905080600460003373ffffffffffffffffffffffffffffffffffffffff1673ffffffffffffffffffffffffffffffffffffffff1681526020019081526020016000206000820151816000019080519060200190610f3e9291906116e6565b5060208201518160010160006101000a81548173ffffffffffffffffffffffffffffffffffffffff021916908373ffffffffffffffffffffffffffffffffffffffff1602179055506040820151816002019080519060200190610fa29291906116e6565b509050507f12cb44b0910757f01bb81b6c733eac1c8f7ccf741c357f3cf4892defa4c39d5383338460405180806020018473ffffffffffffffffffffffffffffffffffffffff1673ffffffffffffffffffffffffffffffffffffffff16815260200180602001838103835286818151815260200191508051906020019080838360005b83811015611040578082015181840152602081019050611025565b50505050905090810190601f16801561106d5780820380516001836020036101000a031916815260200191505b50838103825284818151815260200191508051906020019080838360005b838110156110a657808201518184015260208101905061108b565b50505050905090810190601f1680156110d35780820380516001836020036101000a031916815260200191505b509550505050505060405180910390a1505050565b60065481565b6110f661179e565b60a0604051908101604052808481526020013373ffffffffffffffffffffffffffffffffffffffff1681526020018381526020016000815260200160006040519080825280602002602001820160405280156111615781602001602082028038833980820191505090505b50815250905080600360003373ffffffffffffffffffffffffffffffffffffffff1673ffffffffffffffffffffffffffffffffffffffff16815260200190815260200160002060008201518160000190805190602001906111c39291906116e6565b5060208201518160010160006101000a81548173ffffffffffffffffffffffffffffffffffffffff021916908373ffffffffffffffffffffffffffffffffffffffff16021790555060408201518160020190805190602001906112279291906116e6565b5060608201518160030155608082015181600401908051906020019061124e9291906117e4565b509050507fe57e8ec5f7c0252d278f1d91e7ebf4e4ad1b5572e0006b54909e44417decdd5183338460405180806020018473ffffffffffffffffffffffffffffffffffffffff1673ffffffffffffffffffffffffffffffffffffffff16815260200180602001838103835286818151815260200191508051906020019080838360005b838110156112ec5780820151818401526020810190506112d1565b50505050905090810190601f1680156113195780820380516001836020036101000a031916815260200191505b50838103825284818151815260200191508051906020019080838360005b83811015611352578082015181840152602081019050611337565b50505050905090810190601f16801561137f5780820380516001836020036101000a031916815260200191505b509550505050505060405180910390a1505050565b6003602052806000526040600020600091509050806000018054600181600116156101000203166002900480601f0160208091040260200160405190810160405280929190818152602001828054600181600116156101000203166002900480156114405780601f1061141557610100808354040283529160200191611440565b820191906000526020600020905b81548152906001019060200180831161142357829003601f168201915b5050505050908060010160009054906101000a900473ffffffffffffffffffffffffffffffffffffffff1690806002018054600181600116156101000203166002900480601f0160208091040260200160405190810160405280929190818152602001828054600181600116156101000203166002900480156115045780601f106114d957610100808354040283529160200191611504565b820191906000526020600020905b8154815290600101906020018083116114e757829003601f168201915b5050505050908060030154905084565b6004602052806000526040600020600091509050806000018054600181600116156101000203166002900480601f0160208091040260200160405190810160405280929190818152602001828054600181600116156101000203166002900480156115c05780601f10611595576101008083540402835291602001916115c0565b820191906000526020600020905b8154815290600101906020018083116115a357829003601f168201915b5050505050908060010160009054906101000a900473ffffffffffffffffffffffffffffffffffffffff1690806002018054600181600116156101000203166002900480601f0160208091040260200160405190810160405280929190818152602001828054600181600116156101000203166002900480156116845780601f1061165957610100808354040283529160200191611684565b820191906000526020600020905b81548152906001019060200180831161166757829003601f168201915b5050505050905083565b60e06040519081016040528060608152602001600073ffffffffffffffffffffffffffffffffffffffff1681526020016060815260200160008152602001600015158152602001600081526020016000151581525090565b828054600181600116156101000203166002900490600052602060002090601f016020900481019282601f1061172757805160ff1916838001178555611755565b82800160010185558215611755579182015b82811115611754578251825591602001919060010190611739565b5b509050611762919061186e565b5090565b60606040519081016040528060608152602001600073ffffffffffffffffffffffffffffffffffffffff168152602001606081525090565b60a06040519081016040528060608152602001600073ffffffffffffffffffffffffffffffffffffffff1681526020016060815260200160008152602001606081525090565b82805482825590600052602060002090810192821561185d579160200282015b8281111561185c5782518260006101000a81548173ffffffffffffffffffffffffffffffffffffffff021916908373ffffffffffffffffffffffffffffffffffffffff16021790555091602001919060010190611804565b5b50905061186a9190611893565b5090565b61189091905b8082111561188c576000816000905550600101611874565b5090565b90565b6118d391905b808211156118cf57600081816101000a81549073ffffffffffffffffffffffffffffffffffffffff021916905550600101611899565b5090565b9056fea165627a7a723058207f39a20aa862f78c921685ba87bb54a928ae1d31b2f5a7604ce0d8ab480931c20029",
  "source": "// SPDX-License-Identifier: MIT\r\npragma solidity >=0.4.22 <0.8.0;\r\n\r\ncontract Hello {\r\n    //POJO for Admin\r\n    struct Admin {\r\n        string adminName;\r\n        string adminEmail;\r\n        address adminAddress;\r\n    }\r\n\r\n     //POJO for Donor\r\n    struct Donor{\r\n        string donorName;\r\n        address donorAddress;\r\n        string donorEmail;\r\n        uint participatedCount;\r\n        address[] participatedProjects;\r\n    }\r\n\r\n    // POJO for Benifactor\r\n    struct Benifactor{\r\n        string benifactorName;\r\n        address benifactorAddress;\r\n        string benifactorEmail;\r\n    }\r\n\r\n    //POJO for Charity Organisation\r\n    struct CharityProject{\r\n        string projectName;\r\n        address createrAddress;\r\n        string projectDescription;\r\n        uint amountRequire;\r\n        bool isCompleted;\r\n        uint amountGot;\r\n        bool isApproved;\r\n    }\r\n\r\n    //Organiser / Admin (Who created this Smart Contract)\r\n    Admin private admin;\r\n    \r\n    mapping(address => Donor) public donors;\r\n    mapping(address => Benifactor) public benifactors;\r\n    mapping(uint => CharityProject) public charityProjects;\r\n    uint public totalProjects;\r\n\r\n    //Constructor => Set's Admin only once at starting\r\n    constructor () public {\r\n        admin = Admin({\r\n            adminName: \"root\",\r\n            adminEmail: \"root.charitychain.in\",\r\n            adminAddress: msg.sender\r\n        });\r\n\r\n        totalProjects = 0;\r\n    }\r\n\r\n    event newBenifactorAdded (\r\n        string benifactorName,\r\n        address benifactorAddress,\r\n        string benifactorEmail\r\n    );\r\n\r\n    event newDonorAdded (\r\n        string donorName,\r\n        address donorAddress,\r\n        string donorEmail\r\n    );\r\n\r\n    event newProjectAdded (\r\n        string projectName,\r\n        address createrAddress,\r\n        string projectDescription,\r\n        uint amountRequire,\r\n        bool isCompleted,\r\n        uint amountGot,\r\n        bool isApproved\r\n    );\r\n\r\n    // Add new Benifactor\r\n    function addNewBenifactor(string memory name, string memory email) public {\r\n        Benifactor memory newBenifactor = Benifactor({\r\n            benifactorName: name,\r\n            benifactorAddress: msg.sender,\r\n            benifactorEmail: email\r\n        });\r\n\r\n        benifactors[msg.sender] = newBenifactor;\r\n        emit newBenifactorAdded(name, msg.sender, email);\r\n    }  \r\n\r\n\r\n    //Add new Donor\r\n    function addNewDonor(string memory name, string memory email) public {\r\n\r\n        Donor memory newDonor = Donor({\r\n            donorName: name,\r\n            donorAddress: msg.sender,\r\n            donorEmail: email,\r\n            participatedCount: 0,\r\n            participatedProjects: new address[](0)\r\n        });\r\n\r\n        donors[msg.sender] = newDonor;\r\n        emit newDonorAdded(name, msg.sender, email);\r\n    } \r\n\r\n    \r\n    //Add new Project\r\n    function addNewProject(string memory name, string memory desc, uint amtReq) public {\r\n\r\n        CharityProject memory newProject = CharityProject({\r\n            projectName : name,\r\n            createrAddress : msg.sender,\r\n            projectDescription : desc,\r\n            amountRequire : amtReq,\r\n            isCompleted: false,\r\n            amountGot: 0,\r\n            isApproved: false\r\n        });\r\n\r\n        totalProjects += 1;\r\n        charityProjects[totalProjects] = newProject;\r\n        emit newProjectAdded(name, msg.sender, desc, amtReq, false, 0, false);\r\n    } \r\n\r\n    function getDonorProjects(uint ind) public view returns(address) {\r\n        return donors[msg.sender].participatedProjects[ind];\r\n    }\r\n\r\n\r\n}",
  "sourcePath": "D:\\College Project Work\\CharityChain - A Blockchain Based Charity Application\\Actual Code\\2\\contracts\\Hello.sol",
  "compiler": {
    "name": "solc",
    "version": "0.5.0+commit.1d4f565a.Emscripten.clang"
  },
  "schemaVersion": "3.0.23",
  "updatedAt": "2022-03-13T08:07:08.968Z",
  "networkType": "ethereum",
  "devdoc": {
    "methods": {}
  },
  "userdoc": {
    "methods": {}
  }
}