{
  "contractName": "Hello",
  "abi": [
    {
      "constant": true,
      "inputs": [],
      "name": "last_completed_migration",
      "outputs": [
        {
          "name": "",
          "type": "uint256"
        }
      ],
      "payable": false,
      "stateMutability": "view",
      "type": "function"
    },
    {
      "constant": true,
      "inputs": [],
      "name": "owner",
      "outputs": [
        {
          "name": "",
          "type": "address"
        }
      ],
      "payable": false,
      "stateMutability": "view",
      "type": "function"
    },
    {
      "constant": true,
      "inputs": [],
      "name": "getA",
      "outputs": [
        {
          "name": "",
          "type": "string"
        }
      ],
      "payable": false,
      "stateMutability": "view",
      "type": "function"
    },
    {
      "constant": true,
      "inputs": [],
      "name": "getowner",
      "outputs": [
        {
          "name": "",
          "type": "address"
        }
      ],
      "payable": false,
      "stateMutability": "view",
      "type": "function"
    },
    {
      "constant": false,
      "inputs": [
        {
          "name": "completed",
          "type": "uint256"
        }
      ],
      "name": "setCompleted",
      "outputs": [],
      "payable": false,
      "stateMutability": "nonpayable",
      "type": "function"
    }
  ],
  "bytecode": "0x6080604052336000806101000a81548173ffffffffffffffffffffffffffffffffffffffff021916908373ffffffffffffffffffffffffffffffffffffffff16021790555034801561005057600080fd5b506103c7806100606000396000f3fe60806040526004361061006d576000357c0100000000000000000000000000000000000000000000000000000000900463ffffffff168063445df0ac146100725780638da5cb5b1461009d578063d46300fd146100f4578063fdacd57614610184578063fe0174bd146101bf575b600080fd5b34801561007e57600080fd5b50610087610216565b6040518082815260200191505060405180910390f35b3480156100a957600080fd5b506100b261021c565b604051808273ffffffffffffffffffffffffffffffffffffffff1673ffffffffffffffffffffffffffffffffffffffff16815260200191505060405180910390f35b34801561010057600080fd5b50610109610241565b6040518080602001828103825283818151815260200191508051906020019080838360005b8381101561014957808201518184015260208101905061012e565b50505050905090810190601f1680156101765780820380516001836020036101000a031916815260200191505b509250505060405180910390f35b34801561019057600080fd5b506101bd600480360360208110156101a757600080fd5b810190808035906020019092919050505061027e565b005b3480156101cb57600080fd5b506101d4610372565b604051808273ffffffffffffffffffffffffffffffffffffffff1673ffffffffffffffffffffffffffffffffffffffff16815260200191505060405180910390f35b60015481565b6000809054906101000a900473ffffffffffffffffffffffffffffffffffffffff1681565b60606040805190810160405280600581526020017f4441414441000000000000000000000000000000000000000000000000000000815250905090565b6000809054906101000a900473ffffffffffffffffffffffffffffffffffffffff1673ffffffffffffffffffffffffffffffffffffffff163373ffffffffffffffffffffffffffffffffffffffff16141515610368576040517f08c379a00000000000000000000000000000000000000000000000000000000081526004018080602001828103825260338152602001807f546869732066756e6374696f6e206973207265737472696374656420746f207481526020017f686520636f6e74726163742773206f776e65720000000000000000000000000081525060400191505060405180910390fd5b8060018190555050565b60008060009054906101000a900473ffffffffffffffffffffffffffffffffffffffff1690509056fea165627a7a72305820a88ffc8dee6895ed28eab5426a1dbda7b12751fc67085168240d347dce2955490029",
  "source": "// SPDX-License-Identifier: MIT\r\npragma solidity >=0.4.22 <0.8.0;\r\n\r\ncontract Hello {\r\n    address public owner = msg.sender;\r\n    uint256 public last_completed_migration;\r\n\r\n    modifier restricted() {\r\n        require(\r\n            msg.sender == owner,\r\n            \"This function is restricted to the contract's owner\"\r\n        );\r\n        _;\r\n    }\r\n\r\n\t\r\n    function getA() public view returns (string memory) {\r\n        return \"DAADA\";\r\n    }\r\n\r\n    function getowner() public view returns (address) {\r\n        return owner;\r\n    }\r\n\r\n    function setCompleted(uint256 completed) public restricted {\r\n        last_completed_migration = completed;\r\n    }\r\n}\r\n",
  "sourcePath": "D:\\College Project Work\\CharityChain - A Blockchain Based Charity Application\\Actual Code\\2\\contracts\\Hello.sol",
  "compiler": {
    "name": "solc",
    "version": "0.5.0+commit.1d4f565a.Emscripten.clang"
  },
  "schemaVersion": "3.0.23",
  "updatedAt": "2022-03-11T17:44:55.894Z",
  "networkType": "ethereum",
  "devdoc": {
    "methods": {}
  },
  "userdoc": {
    "methods": {}
  }
}