{
  "contractName": "Hello",
  "abi": [
    {
      "constant": true,
      "inputs": [
        {
          "name": "",
          "type": "uint256"
        }
      ],
      "name": "charityProjects",
      "outputs": [
        {
          "name": "projectName",
          "type": "string"
        },
        {
          "name": "createrAddress",
          "type": "address"
        },
        {
          "name": "projectDescription",
          "type": "string"
        },
        {
          "name": "amountRequire",
          "type": "uint256"
        },
        {
          "name": "isCompleted",
          "type": "bool"
        },
        {
          "name": "amountGot",
          "type": "uint256"
        },
        {
          "name": "isApproved",
          "type": "bool"
        }
      ],
      "payable": false,
      "stateMutability": "view",
      "type": "function"
    },
    {
      "constant": true,
      "inputs": [],
      "name": "totalProjects",
      "outputs": [
        {
          "name": "",
          "type": "uint256"
        }
      ],
      "payable": false,
      "stateMutability": "view",
      "type": "function"
    },
    {
      "constant": true,
      "inputs": [
        {
          "name": "",
          "type": "address"
        }
      ],
      "name": "donors",
      "outputs": [
        {
          "name": "donorName",
          "type": "string"
        },
        {
          "name": "donorAddress",
          "type": "address"
        },
        {
          "name": "donorEmail",
          "type": "string"
        },
        {
          "name": "participatedCount",
          "type": "uint256"
        }
      ],
      "payable": false,
      "stateMutability": "view",
      "type": "function"
    },
    {
      "constant": true,
      "inputs": [
        {
          "name": "",
          "type": "address"
        }
      ],
      "name": "benifactors",
      "outputs": [
        {
          "name": "benifactorName",
          "type": "string"
        },
        {
          "name": "benifactorAddress",
          "type": "address"
        },
        {
          "name": "benifactorEmail",
          "type": "string"
        }
      ],
      "payable": false,
      "stateMutability": "view",
      "type": "function"
    },
    {
      "inputs": [],
      "payable": false,
      "stateMutability": "nonpayable",
      "type": "constructor"
    },
    {
      "constant": false,
      "inputs": [
        {
          "name": "name",
          "type": "string"
        },
        {
          "name": "email",
          "type": "string"
        }
      ],
      "name": "addNewBenifactor",
      "outputs": [],
      "payable": false,
      "stateMutability": "nonpayable",
      "type": "function"
    },
    {
      "constant": false,
      "inputs": [
        {
          "name": "name",
          "type": "string"
        },
        {
          "name": "email",
          "type": "string"
        }
      ],
      "name": "addNewDonor",
      "outputs": [],
      "payable": false,
      "stateMutability": "nonpayable",
      "type": "function"
    },
    {
      "constant": false,
      "inputs": [
        {
          "name": "name",
          "type": "string"
        },
        {
          "name": "desc",
          "type": "string"
        },
        {
          "name": "amtReq",
          "type": "uint256"
        }
      ],
      "name": "addNewProject",
      "outputs": [],
      "payable": false,
      "stateMutability": "nonpayable",
      "type": "function"
    }
  ],
  "bytecode": "0x60806040523480156200001157600080fd5b506060604051908101604052806040805190810160405280601081526020017f416268696a656574204b68616d6b61720000000000000000000000000000000081525081526020016040805190810160405280601b81526020017f616268696a6565746b68616d6b6172333040676d61696c2e636f6d000000000081525081526020013373ffffffffffffffffffffffffffffffffffffffff16815250600080820151816000019080519060200190620000cd9291906200033c565b506020820151816001019080519060200190620000ec9291906200033c565b5060408201518160020160006101000a81548173ffffffffffffffffffffffffffffffffffffffff021916908373ffffffffffffffffffffffffffffffffffffffff1602179055509050506000600681905550620001c46040805190810160405280600281526020017f64310000000000000000000000000000000000000000000000000000000000008152506040805190810160405280600581526020017f64312e696e000000000000000000000000000000000000000000000000000000815250620001ca640100000000026401000000009004565b62000506565b620001d4620003c3565b60a0604051908101604052808481526020013373ffffffffffffffffffffffffffffffffffffffff168152602001838152602001600081526020016000604051908082528060200260200182016040528015620002405781602001602082028038833980820191505090505b50815250905080600360003373ffffffffffffffffffffffffffffffffffffffff1673ffffffffffffffffffffffffffffffffffffffff1681526020019081526020016000206000820151816000019080519060200190620002a49291906200033c565b5060208201518160010160006101000a81548173ffffffffffffffffffffffffffffffffffffffff021916908373ffffffffffffffffffffffffffffffffffffffff16021790555060408201518160020190805190602001906200030a9291906200033c565b506060820151816003015560808201518160040190805190602001906200033392919062000409565b50905050505050565b828054600181600116156101000203166002900490600052602060002090601f016020900481019282601f106200037f57805160ff1916838001178555620003b0565b82800160010185558215620003b0579182015b82811115620003af57825182559160200191906001019062000392565b5b509050620003bf919062000498565b5090565b60a06040519081016040528060608152602001600073ffffffffffffffffffffffffffffffffffffffff1681526020016060815260200160008152602001606081525090565b82805482825590600052602060002090810192821562000485579160200282015b82811115620004845782518260006101000a81548173ffffffffffffffffffffffffffffffffffffffff021916908373ffffffffffffffffffffffffffffffffffffffff160217905550916020019190600101906200042a565b5b509050620004949190620004c0565b5090565b620004bd91905b80821115620004b95760008160009055506001016200049f565b5090565b90565b6200050391905b80821115620004ff57600081816101000a81549073ffffffffffffffffffffffffffffffffffffffff021916905550600101620004c7565b5090565b90565b61141880620005166000396000f3fe608060405260043610610083576000357c0100000000000000000000000000000000000000000000000000000000900463ffffffff1680631bf71d4b146100885780631fd421f4146101f1578063992f317e146103685780639c361e4e146104c7578063c9b64ced146104f2578063ca0cdea814610651578063fba6f21d146107c1575b600080fd5b34801561009457600080fd5b506101ef600480360360608110156100ab57600080fd5b81019080803590602001906401000000008111156100c857600080fd5b8201836020820111156100da57600080fd5b803590602001918460018302840111640100000000831117156100fc57600080fd5b91908080601f016020809104026020016040519081016040528093929190818152602001838380828437600081840152601f19601f8201169050808301925050505050505091929192908035906020019064010000000081111561015f57600080fd5b82018360208201111561017157600080fd5b8035906020019184600183028401116401000000008311171561019357600080fd5b91908080601f016020809104026020016040519081016040528093929190818152602001838380828437600081840152601f19601f8201169050808301925050505050505091929192908035906020019092919050505061092a565b005b3480156101fd57600080fd5b5061022a6004803603602081101561021457600080fd5b8101908080359060200190929190505050610a8a565b60405180806020018873ffffffffffffffffffffffffffffffffffffffff1673ffffffffffffffffffffffffffffffffffffffff16815260200180602001878152602001861515151581526020018581526020018415151515815260200183810383528a818151815260200191508051906020019080838360005b838110156102c05780820151818401526020810190506102a5565b50505050905090810190601f1680156102ed5780820380516001836020036101000a031916815260200191505b50838103825288818151815260200191508051906020019080838360005b8381101561032657808201518184015260208101905061030b565b50505050905090810190601f1680156103535780820380516001836020036101000a031916815260200191505b50995050505050505050505060405180910390f35b34801561037457600080fd5b506104c56004803603604081101561038b57600080fd5b81019080803590602001906401000000008111156103a857600080fd5b8201836020820111156103ba57600080fd5b803590602001918460018302840111640100000000831117156103dc57600080fd5b91908080601f016020809104026020016040519081016040528093929190818152602001838380828437600081840152601f19601f8201169050808301925050505050505091929192908035906020019064010000000081111561043f57600080fd5b82018360208201111561045157600080fd5b8035906020019184600183028401116401000000008311171561047357600080fd5b91908080601f016020809104026020016040519081016040528093929190818152602001838380828437600081840152601f19601f820116905080830192505050505050509192919290505050610c36565b005b3480156104d357600080fd5b506104dc610d3b565b6040518082815260200191505060405180910390f35b3480156104fe57600080fd5b5061064f6004803603604081101561051557600080fd5b810190808035906020019064010000000081111561053257600080fd5b82018360208201111561054457600080fd5b8035906020019184600183028401116401000000008311171561056657600080fd5b91908080601f016020809104026020016040519081016040528093929190818152602001838380828437600081840152601f19601f820116905080830192505050505050509192919290803590602001906401000000008111156105c957600080fd5b8201836020820111156105db57600080fd5b803590602001918460018302840111640100000000831117156105fd57600080fd5b91908080601f016020809104026020016040519081016040528093929190818152602001838380828437600081840152601f19601f820116905080830192505050505050509192919290505050610d41565b005b34801561065d57600080fd5b506106a06004803603602081101561067457600080fd5b81019080803573ffffffffffffffffffffffffffffffffffffffff169060200190929190505050610eaa565b60405180806020018573ffffffffffffffffffffffffffffffffffffffff1673ffffffffffffffffffffffffffffffffffffffff16815260200180602001848152602001838103835287818151815260200191508051906020019080838360005b8381101561071c578082015181840152602081019050610701565b50505050905090810190601f1680156107495780820380516001836020036101000a031916815260200191505b50838103825285818151815260200191508051906020019080838360005b83811015610782578082015181840152602081019050610767565b50505050905090810190601f1680156107af5780820380516001836020036101000a031916815260200191505b50965050505050505060405180910390f35b3480156107cd57600080fd5b50610810600480360360208110156107e457600080fd5b81019080803573ffffffffffffffffffffffffffffffffffffffff16906020019092919050505061102a565b60405180806020018473ffffffffffffffffffffffffffffffffffffffff1673ffffffffffffffffffffffffffffffffffffffff16815260200180602001838103835286818151815260200191508051906020019080838360005b8381101561088657808201518184015260208101905061086b565b50505050905090810190601f1680156108b35780820380516001836020036101000a031916815260200191505b50838103825284818151815260200191508051906020019080838360005b838110156108ec5780820151818401526020810190506108d1565b50505050905090810190601f1680156109195780820380516001836020036101000a031916815260200191505b509550505050505060405180910390f35b6109326111a4565b60e0604051908101604052808581526020013373ffffffffffffffffffffffffffffffffffffffff1681526020018481526020018381526020016000151581526020016000815260200160001515815250905060016006600082825401925050819055508060056000600654815260200190815260200160002060008201518160000190805190602001906109c89291906111fc565b5060208201518160010160006101000a81548173ffffffffffffffffffffffffffffffffffffffff021916908373ffffffffffffffffffffffffffffffffffffffff1602179055506040820151816002019080519060200190610a2c9291906111fc565b506060820151816003015560808201518160040160006101000a81548160ff02191690831515021790555060a0820151816005015560c08201518160060160006101000a81548160ff02191690831515021790555090505050505050565b6005602052806000526040600020600091509050806000018054600181600116156101000203166002900480601f016020809104026020016040519081016040528092919081815260200182805460018160011615610100020316600290048015610b365780601f10610b0b57610100808354040283529160200191610b36565b820191906000526020600020905b815481529060010190602001808311610b1957829003601f168201915b5050505050908060010160009054906101000a900473ffffffffffffffffffffffffffffffffffffffff1690806002018054600181600116156101000203166002900480601f016020809104026020016040519081016040528092919081815260200182805460018160011615610100020316600290048015610bfa5780601f10610bcf57610100808354040283529160200191610bfa565b820191906000526020600020905b815481529060010190602001808311610bdd57829003601f168201915b5050505050908060030154908060040160009054906101000a900460ff16908060050154908060060160009054906101000a900460ff16905087565b610c3e61127c565b6060604051908101604052808481526020013373ffffffffffffffffffffffffffffffffffffffff16815260200183815250905080600460003373ffffffffffffffffffffffffffffffffffffffff1673ffffffffffffffffffffffffffffffffffffffff1681526020019081526020016000206000820151816000019080519060200190610cce9291906111fc565b5060208201518160010160006101000a81548173ffffffffffffffffffffffffffffffffffffffff021916908373ffffffffffffffffffffffffffffffffffffffff1602179055506040820151816002019080519060200190610d329291906111fc565b50905050505050565b60065481565b610d496112b4565b60a0604051908101604052808481526020013373ffffffffffffffffffffffffffffffffffffffff168152602001838152602001600081526020016000604051908082528060200260200182016040528015610db45781602001602082028038833980820191505090505b50815250905080600360003373ffffffffffffffffffffffffffffffffffffffff1673ffffffffffffffffffffffffffffffffffffffff1681526020019081526020016000206000820151816000019080519060200190610e169291906111fc565b5060208201518160010160006101000a81548173ffffffffffffffffffffffffffffffffffffffff021916908373ffffffffffffffffffffffffffffffffffffffff1602179055506040820151816002019080519060200190610e7a9291906111fc565b50606082015181600301556080820151816004019080519060200190610ea19291906112fa565b50905050505050565b6003602052806000526040600020600091509050806000018054600181600116156101000203166002900480601f016020809104026020016040519081016040528092919081815260200182805460018160011615610100020316600290048015610f565780601f10610f2b57610100808354040283529160200191610f56565b820191906000526020600020905b815481529060010190602001808311610f3957829003601f168201915b5050505050908060010160009054906101000a900473ffffffffffffffffffffffffffffffffffffffff1690806002018054600181600116156101000203166002900480601f01602080910402602001604051908101604052809291908181526020018280546001816001161561010002031660029004801561101a5780601f10610fef5761010080835404028352916020019161101a565b820191906000526020600020905b815481529060010190602001808311610ffd57829003601f168201915b5050505050908060030154905084565b6004602052806000526040600020600091509050806000018054600181600116156101000203166002900480601f0160208091040260200160405190810160405280929190818152602001828054600181600116156101000203166002900480156110d65780601f106110ab576101008083540402835291602001916110d6565b820191906000526020600020905b8154815290600101906020018083116110b957829003601f168201915b5050505050908060010160009054906101000a900473ffffffffffffffffffffffffffffffffffffffff1690806002018054600181600116156101000203166002900480601f01602080910402602001604051908101604052809291908181526020018280546001816001161561010002031660029004801561119a5780601f1061116f5761010080835404028352916020019161119a565b820191906000526020600020905b81548152906001019060200180831161117d57829003601f168201915b5050505050905083565b60e06040519081016040528060608152602001600073ffffffffffffffffffffffffffffffffffffffff1681526020016060815260200160008152602001600015158152602001600081526020016000151581525090565b828054600181600116156101000203166002900490600052602060002090601f016020900481019282601f1061123d57805160ff191683800117855561126b565b8280016001018555821561126b579182015b8281111561126a57825182559160200191906001019061124f565b5b5090506112789190611384565b5090565b60606040519081016040528060608152602001600073ffffffffffffffffffffffffffffffffffffffff168152602001606081525090565b60a06040519081016040528060608152602001600073ffffffffffffffffffffffffffffffffffffffff1681526020016060815260200160008152602001606081525090565b828054828255906000526020600020908101928215611373579160200282015b828111156113725782518260006101000a81548173ffffffffffffffffffffffffffffffffffffffff021916908373ffffffffffffffffffffffffffffffffffffffff1602179055509160200191906001019061131a565b5b50905061138091906113a9565b5090565b6113a691905b808211156113a257600081600090555060010161138a565b5090565b90565b6113e991905b808211156113e557600081816101000a81549073ffffffffffffffffffffffffffffffffffffffff0219169055506001016113af565b5090565b9056fea165627a7a72305820095642d2e9a8119e615095176892ba486a9a3b0c665e24001f8d11c099737fb80029",
  "source": "// SPDX-License-Identifier: MIT\r\npragma solidity >=0.4.22 <0.8.0;\r\n\r\ncontract Hello {\r\n    //POJO for Admin\r\n    struct Admin {\r\n        string adminName;\r\n        string adminEmail;\r\n        address adminAddress;\r\n    }\r\n\r\n     //POJO for Donor\r\n    struct Donor{\r\n        string donorName;\r\n        address donorAddress;\r\n        string donorEmail;\r\n        uint participatedCount;\r\n        address[] participatedProjects;\r\n    }\r\n\r\n    // POJO for Benifactor\r\n    struct Benifactor{\r\n        string benifactorName;\r\n        address benifactorAddress;\r\n        string benifactorEmail;\r\n    }\r\n\r\n    //POJO for Charity Organisation\r\n    struct CharityProject{\r\n        string projectName;\r\n        address createrAddress;\r\n        string projectDescription;\r\n        uint amountRequire;\r\n        bool isCompleted;\r\n        uint amountGot;\r\n        bool isApproved;\r\n\r\n    }\r\n\r\n    //Organiser / Admin (Who created this Smart Contract)\r\n    Admin private admin;\r\n    \r\n    mapping(address => Donor) public donors;\r\n    mapping(address => Benifactor) public benifactors;\r\n    mapping(uint => CharityProject) public charityProjects;\r\n    uint public totalProjects;\r\n\r\n    //Constructor => Set's Admin only once at starting\r\n\r\n    constructor () public {\r\n        admin = Admin({\r\n            adminName: \"Abhijeet Khamkar\",\r\n            adminEmail: \"abhijeetkhamkar30@gmail.com\",\r\n            adminAddress: msg.sender\r\n        });\r\n\r\n        totalProjects = 0;\r\n        addNewDonor(\"d1\", \"d1.in\");\r\n    }\r\n\r\n    // Add new Benifactor\r\n    function addNewBenifactor(string memory name, string memory email) public {\r\n        Benifactor memory newBenifactor = Benifactor({\r\n            benifactorName: name,\r\n            benifactorAddress: msg.sender,\r\n            benifactorEmail: email\r\n        });\r\n\r\n        benifactors[msg.sender] = newBenifactor;\r\n        //Emmit Event\r\n    }  \r\n\r\n    //Login Benifactor\r\n    // function loginBenifactor() public view returns (Benifactor memory) {\r\n    //     return benifactors[msg.sender];\r\n    //     contract.methods.benifactors(address);\r\n    //     itn part = contract.methods.donors(address).participatedCount;\r\n    //     for(int i=0; i<part)  contract.methods.donors(address).participated(i);\r\n    // }\r\n\r\n\r\n    //Add new Donor\r\n    function addNewDonor(string memory name, string memory email) public {\r\n\r\n        Donor memory newDonor = Donor({\r\n            donorName: name,\r\n            donorAddress: msg.sender,\r\n            donorEmail: email,\r\n            participatedCount: 0,\r\n            participatedProjects: new address[](0)\r\n        });\r\n\r\n        donors[msg.sender] = newDonor;\r\n        //Emmit Event\r\n    } \r\n\r\n    \r\n    //Add new Project\r\n    function addNewProject(string memory name, string memory desc, uint amtReq) public {\r\n\r\n        CharityProject memory newProject = CharityProject({\r\n            projectName : name,\r\n            createrAddress : msg.sender,\r\n            projectDescription : desc,\r\n            amountRequire : amtReq,\r\n            isCompleted: false,\r\n            amountGot: 0,\r\n            isApproved: false\r\n        });\r\n\r\n        totalProjects += 1;\r\n        charityProjects[totalProjects] = newProject;\r\n        //Emmit Event\r\n    } \r\n\r\n}\r\n",
  "sourcePath": "D:\\College Project Work\\CharityChain - A Blockchain Based Charity Application\\Actual Code\\2\\contracts\\Hello.sol",
  "compiler": {
    "name": "solc",
    "version": "0.5.0+commit.1d4f565a.Emscripten.clang"
  },
  "schemaVersion": "3.0.23",
  "updatedAt": "2022-03-12T06:46:43.523Z",
  "networkType": "ethereum",
  "devdoc": {
    "methods": {}
  },
  "userdoc": {
    "methods": {}
  }
}